{
  "_format": "hh-sol-artifact-1",
  "contractName": "CredmarkAccessFactory",
  "sourceName": "contracts/CredmarkAccessFactory.sol",
  "abi": [
    {
      "inputs": [
        {
          "internalType": "contract ICredmarkAccessKey",
          "name": "_nft",
          "type": "address"
        },
        {
          "internalType": "address",
          "name": "_credmarkDaoTreasury",
          "type": "address"
        },
        {
          "internalType": "contract IERC20",
          "name": "_cmk",
          "type": "address"
        },
        {
          "internalType": "uint256",
          "name": "_cmkPerSec",
          "type": "uint256"
        },
        {
          "internalType": "contract IERC20",
          "name": "_xcmk",
          "type": "address"
        },
        {
          "internalType": "uint256",
          "name": "_xcmkPerSec",
          "type": "uint256"
        },
        {
          "internalType": "contract IERC20",
          "name": "_usdc",
          "type": "address"
        },
        {
          "internalType": "uint256",
          "name": "_usdcPerSec",
          "type": "uint256"
        }
      ],
      "stateMutability": "nonpayable",
      "type": "constructor"
    },
    {
      "anonymous": false,
      "inputs": [
        {
          "indexed": true,
          "internalType": "bytes32",
          "name": "role",
          "type": "bytes32"
        },
        {
          "indexed": true,
          "internalType": "bytes32",
          "name": "previousAdminRole",
          "type": "bytes32"
        },
        {
          "indexed": true,
          "internalType": "bytes32",
          "name": "newAdminRole",
          "type": "bytes32"
        }
      ],
      "name": "RoleAdminChanged",
      "type": "event"
    },
    {
      "anonymous": false,
      "inputs": [
        {
          "indexed": true,
          "internalType": "bytes32",
          "name": "role",
          "type": "bytes32"
        },
        {
          "indexed": true,
          "internalType": "address",
          "name": "account",
          "type": "address"
        },
        {
          "indexed": true,
          "internalType": "address",
          "name": "sender",
          "type": "address"
        }
      ],
      "name": "RoleGranted",
      "type": "event"
    },
    {
      "anonymous": false,
      "inputs": [
        {
          "indexed": true,
          "internalType": "bytes32",
          "name": "role",
          "type": "bytes32"
        },
        {
          "indexed": true,
          "internalType": "address",
          "name": "account",
          "type": "address"
        },
        {
          "indexed": true,
          "internalType": "address",
          "name": "sender",
          "type": "address"
        }
      ],
      "name": "RoleRevoked",
      "type": "event"
    },
    {
      "inputs": [],
      "name": "DEFAULT_ADMIN_ROLE",
      "outputs": [
        {
          "internalType": "bytes32",
          "name": "",
          "type": "bytes32"
        }
      ],
      "stateMutability": "view",
      "type": "function"
    },
    {
      "inputs": [],
      "name": "ORACLE_ROLE",
      "outputs": [
        {
          "internalType": "bytes32",
          "name": "",
          "type": "bytes32"
        }
      ],
      "stateMutability": "view",
      "type": "function"
    },
    {
      "inputs": [
        {
          "internalType": "uint256",
          "name": "tokenId",
          "type": "uint256"
        }
      ],
      "name": "burn",
      "outputs": [],
      "stateMutability": "nonpayable",
      "type": "function"
    },
    {
      "inputs": [],
      "name": "cmk",
      "outputs": [
        {
          "internalType": "contract IERC20",
          "name": "",
          "type": "address"
        }
      ],
      "stateMutability": "view",
      "type": "function"
    },
    {
      "inputs": [],
      "name": "cmkPerSec",
      "outputs": [
        {
          "internalType": "uint256",
          "name": "",
          "type": "uint256"
        }
      ],
      "stateMutability": "view",
      "type": "function"
    },
    {
      "inputs": [],
      "name": "credmarkDaoTreasury",
      "outputs": [
        {
          "internalType": "address",
          "name": "",
          "type": "address"
        }
      ],
      "stateMutability": "view",
      "type": "function"
    },
    {
      "inputs": [
        {
          "internalType": "uint256",
          "name": "tokenId",
          "type": "uint256"
        }
      ],
      "name": "expiryTimestamp",
      "outputs": [
        {
          "internalType": "uint256",
          "name": "",
          "type": "uint256"
        }
      ],
      "stateMutability": "view",
      "type": "function"
    },
    {
      "inputs": [
        {
          "internalType": "uint256",
          "name": "tokenId",
          "type": "uint256"
        },
        {
          "internalType": "uint256",
          "name": "cmkAmount",
          "type": "uint256"
        },
        {
          "internalType": "uint256",
          "name": "xcmkAmount",
          "type": "uint256"
        },
        {
          "internalType": "uint256",
          "name": "usdcAmount",
          "type": "uint256"
        }
      ],
      "name": "extendTokenExpiry",
      "outputs": [],
      "stateMutability": "nonpayable",
      "type": "function"
    },
    {
      "inputs": [
        {
          "internalType": "bytes32",
          "name": "role",
          "type": "bytes32"
        }
      ],
      "name": "getRoleAdmin",
      "outputs": [
        {
          "internalType": "bytes32",
          "name": "",
          "type": "bytes32"
        }
      ],
      "stateMutability": "view",
      "type": "function"
    },
    {
      "inputs": [
        {
          "internalType": "bytes32",
          "name": "role",
          "type": "bytes32"
        },
        {
          "internalType": "address",
          "name": "account",
          "type": "address"
        }
      ],
      "name": "grantRole",
      "outputs": [],
      "stateMutability": "nonpayable",
      "type": "function"
    },
    {
      "inputs": [
        {
          "internalType": "bytes32",
          "name": "role",
          "type": "bytes32"
        },
        {
          "internalType": "address",
          "name": "account",
          "type": "address"
        }
      ],
      "name": "hasRole",
      "outputs": [
        {
          "internalType": "bool",
          "name": "",
          "type": "bool"
        }
      ],
      "stateMutability": "view",
      "type": "function"
    },
    {
      "inputs": [
        {
          "internalType": "uint256",
          "name": "tokenId",
          "type": "uint256"
        }
      ],
      "name": "isExpired",
      "outputs": [
        {
          "internalType": "bool",
          "name": "",
          "type": "bool"
        }
      ],
      "stateMutability": "view",
      "type": "function"
    },
    {
      "inputs": [
        {
          "internalType": "address",
          "name": "to",
          "type": "address"
        },
        {
          "internalType": "uint256",
          "name": "cmkAmount",
          "type": "uint256"
        },
        {
          "internalType": "uint256",
          "name": "xcmkAmount",
          "type": "uint256"
        },
        {
          "internalType": "uint256",
          "name": "usdcAmount",
          "type": "uint256"
        }
      ],
      "name": "mint",
      "outputs": [],
      "stateMutability": "nonpayable",
      "type": "function"
    },
    {
      "inputs": [],
      "name": "nft",
      "outputs": [
        {
          "internalType": "contract ICredmarkAccessKey",
          "name": "",
          "type": "address"
        }
      ],
      "stateMutability": "view",
      "type": "function"
    },
    {
      "inputs": [
        {
          "internalType": "bytes32",
          "name": "role",
          "type": "bytes32"
        },
        {
          "internalType": "address",
          "name": "account",
          "type": "address"
        }
      ],
      "name": "renounceRole",
      "outputs": [],
      "stateMutability": "nonpayable",
      "type": "function"
    },
    {
      "inputs": [
        {
          "internalType": "bytes32",
          "name": "role",
          "type": "bytes32"
        },
        {
          "internalType": "address",
          "name": "account",
          "type": "address"
        }
      ],
      "name": "revokeRole",
      "outputs": [],
      "stateMutability": "nonpayable",
      "type": "function"
    },
    {
      "inputs": [
        {
          "internalType": "uint256",
          "name": "_cmkPerMonth",
          "type": "uint256"
        }
      ],
      "name": "setCmkPerMonth",
      "outputs": [],
      "stateMutability": "nonpayable",
      "type": "function"
    },
    {
      "inputs": [
        {
          "internalType": "uint256",
          "name": "_cmkPerSec",
          "type": "uint256"
        }
      ],
      "name": "setCmkPerSec",
      "outputs": [],
      "stateMutability": "nonpayable",
      "type": "function"
    },
    {
      "inputs": [
        {
          "internalType": "uint256",
          "name": "_usdcPerMonth",
          "type": "uint256"
        }
      ],
      "name": "setUsdcPerMonth",
      "outputs": [],
      "stateMutability": "nonpayable",
      "type": "function"
    },
    {
      "inputs": [
        {
          "internalType": "uint256",
          "name": "_usdcPerSec",
          "type": "uint256"
        }
      ],
      "name": "setUsdcPerSec",
      "outputs": [],
      "stateMutability": "nonpayable",
      "type": "function"
    },
    {
      "inputs": [
        {
          "internalType": "uint256",
          "name": "_xcmkPerMonth",
          "type": "uint256"
        }
      ],
      "name": "setXcmkPerMonth",
      "outputs": [],
      "stateMutability": "nonpayable",
      "type": "function"
    },
    {
      "inputs": [
        {
          "internalType": "uint256",
          "name": "_xcmkPerSec",
          "type": "uint256"
        }
      ],
      "name": "setXcmkPerSec",
      "outputs": [],
      "stateMutability": "nonpayable",
      "type": "function"
    },
    {
      "inputs": [
        {
          "internalType": "bytes4",
          "name": "interfaceId",
          "type": "bytes4"
        }
      ],
      "name": "supportsInterface",
      "outputs": [
        {
          "internalType": "bool",
          "name": "",
          "type": "bool"
        }
      ],
      "stateMutability": "view",
      "type": "function"
    },
    {
      "inputs": [],
      "name": "usdc",
      "outputs": [
        {
          "internalType": "contract IERC20",
          "name": "",
          "type": "address"
        }
      ],
      "stateMutability": "view",
      "type": "function"
    },
    {
      "inputs": [],
      "name": "usdcPerSec",
      "outputs": [
        {
          "internalType": "uint256",
          "name": "",
          "type": "uint256"
        }
      ],
      "stateMutability": "view",
      "type": "function"
    },
    {
      "inputs": [],
      "name": "xcmk",
      "outputs": [
        {
          "internalType": "contract IERC20",
          "name": "",
          "type": "address"
        }
      ],
      "stateMutability": "view",
      "type": "function"
    },
    {
      "inputs": [],
      "name": "xcmkPerSec",
      "outputs": [
        {
          "internalType": "uint256",
          "name": "",
          "type": "uint256"
        }
      ],
      "stateMutability": "view",
      "type": "function"
    }
  ],
  "bytecode": "0x60806040523480156200001157600080fd5b50604051620015a1380380620015a1833981016040819052620000349162000181565b600580546001600160a01b03199081166001600160a01b038b8116919091179092556001805482168a841617905560028054821689841617905560068790556003805482168784161790556007859055600480549091169184169190911790556008819055620000a6600033620000e0565b620000d27f68e79a7bf1e0bc45d0a330c573bc367f9cf464fd326078812f301165fbda4ef133620000e0565b505050505050505062000237565b6000828152602081815260408083206001600160a01b038516845290915290205460ff166200017d576000828152602081815260408083206001600160a01b03851684529091529020805460ff191660011790556200013c3390565b6001600160a01b0316816001600160a01b0316837f2f8788117e7eff1d82e926ec794901d17c78024a50270940304540a733656f0d60405160405180910390a45b5050565b600080600080600080600080610100898b0312156200019f57600080fd5b8851620001ac816200021e565b60208a0151909850620001bf816200021e565b60408a0151909750620001d2816200021e565b60608a015160808b01519197509550620001ec816200021e565b60a08a015160c08b0151919550935062000206816200021e565b8092505060e089015190509295985092959890939650565b6001600160a01b03811681146200023457600080fd5b50565b61135a80620002476000396000f3fe608060405234801561001057600080fd5b50600436106101b95760003560e01c806358c1d45c116100f9578063b63aa14711610097578063d9548e5311610071578063d9548e53146103bc578063e4506ad414610302578063ef3f197a146103cf578063fc5dbe2c146103e257600080fd5b8063b63aa14714610383578063d38f1f2c14610396578063d547741f146103a957600080fd5b80639548ba05116100d35780639548ba051461034c578063a217fddf1461035f578063a647e8ec14610367578063a9820fe01461037a57600080fd5b806358c1d45c14610302578063850c06f41461030257806391d148541461031557600080fd5b806331b3aa39116101665780633e413bee116101405780633e413bee1461029e5780633e8243d7146102c957806342966c68146102dc57806347ccca02146102ef57600080fd5b806331b3aa391461026f57806336568abe1461027857806338fcbe4c1461028b57600080fd5b80631b61a3f7116101975780631b61a3f714610224578063248a9ca3146102395780632f2ff15d1461025c57600080fd5b806301ffc9a7146101be578063064626d2146101e657806307e2cea5146101fd575b600080fd5b6101d16101cc36600461112a565b6103f5565b60405190151581526020015b60405180910390f35b6101ef60065481565b6040519081526020016101dd565b6101ef7f68e79a7bf1e0bc45d0a330c573bc367f9cf464fd326078812f301165fbda4ef181565b6102376102323660046110e5565b61042c565b005b6101ef6102473660046110e5565b60009081526020819052604090206001015490565b61023761026a3660046110fe565b61045c565b6101ef60085481565b6102376102863660046110fe565b610486565b61023761029936600461116d565b610517565b6004546102b1906001600160a01b031681565b6040516001600160a01b0390911681526020016101dd565b6102376102d73660046110e5565b610624565b6102376102ea3660046110e5565b610654565b6005546102b1906001600160a01b031681565b6102376103103660046110e5565b61077c565b6101d16103233660046110fe565b6000918252602082815260408084206001600160a01b0393909316845291905290205460ff1690565b61023761035a3660046110e5565b6107ba565b6101ef600081565b61023761037536600461108a565b6107ea565b6101ef60075481565b6101ef6103913660046110e5565b610878565b6003546102b1906001600160a01b031681565b6102376103b73660046110fe565b610954565b6101d16103ca3660046110e5565b610979565b6002546102b1906001600160a01b031681565b6001546102b1906001600160a01b031681565b60006001600160e01b03198216637965db0b60e01b148061042657506301ffc9a760e01b6001600160e01b03198316145b92915050565b7f68e79a7bf1e0bc45d0a330c573bc367f9cf464fd326078812f301165fbda4ef161045681610a12565b50600655565b60008281526020819052604090206001015461047781610a12565b6104818383610a1f565b505050565b6001600160a01b03811633146105095760405162461bcd60e51b815260206004820152602f60248201527f416363657373436f6e74726f6c3a2063616e206f6e6c792072656e6f756e636560448201527f20726f6c657320666f722073656c66000000000000000000000000000000000060648201526084015b60405180910390fd5b6105138282610abd565b5050565b600083156105395760065461052c9085611287565b610536908261126f565b90505b82156105595760075461054c9084611287565b610556908261126f565b90505b81156105795760085461056c9083611287565b610576908261126f565b90505b6000858152600960205260409020548190610595904290610b3c565b61059f919061126f565b60008681526009602052604090205583156105d3576001546002546105d3916001600160a01b039182169133911687610b55565b82156105f8576001546003546105f8916001600160a01b039182169133911686610b55565b811561061d5760015460045461061d916001600160a01b039182169133911685610b55565b5050505050565b7f68e79a7bf1e0bc45d0a330c573bc367f9cf464fd326078812f301165fbda4ef161064e81610a12565b50600755565b60055460405163430c208160e01b8152336004820152602481018390526001600160a01b039091169063430c20819060440160206040518083038186803b15801561069e57600080fd5b505afa1580156106b2573d6000803e3d6000fd5b505050506040513d601f19601f820116820180604052508101906106d691906110c3565b6107225760405162461bcd60e51b815260206004820152601b60248201527f73686f756c64206265206f776e6572206f7220617070726f76656400000000006044820152606401610500565b600554604051630852cd8d60e31b8152600481018390526001600160a01b03909116906342966c6890602401600060405180830381600087803b15801561076857600080fd5b505af115801561061d573d6000803e3d6000fd5b7f68e79a7bf1e0bc45d0a330c573bc367f9cf464fd326078812f301165fbda4ef16107a681610a12565b6107b362278d0083611287565b6006555050565b7f68e79a7bf1e0bc45d0a330c573bc367f9cf464fd326078812f301165fbda4ef16107e481610a12565b50600855565b6005546040516340d097c360e01b81526001600160a01b03868116600483015260009216906340d097c390602401602060405180830381600087803b15801561083257600080fd5b505af1158015610846573d6000803e3d6000fd5b505050506040513d601f19601f8201168201806040525081019061086a9190611154565b905061061d81858585610517565b600554604051634f558e7960e01b8152600481018390526000916001600160a01b031690634f558e799060240160206040518083038186803b1580156108bd57600080fd5b505afa1580156108d1573d6000803e3d6000fd5b505050506040513d601f19601f820116820180604052508101906108f591906110c3565b6109415760405162461bcd60e51b815260206004820152601060248201527f696e76616c696420746f6b656e204944000000000000000000000000000000006044820152606401610500565b5060009081526009602052604090205490565b60008281526020819052604090206001015461096f81610a12565b6104818383610abd565b600554604051634f558e7960e01b8152600481018390526000916001600160a01b031690634f558e799060240160206040518083038186803b1580156109be57600080fd5b505afa1580156109d2573d6000803e3d6000fd5b505050506040513d601f19601f820116820180604052508101906109f691906110c3565b1580610426575050600090815260096020526040902054421190565b610a1c8133610bca565b50565b6000828152602081815260408083206001600160a01b038516845290915290205460ff16610513576000828152602081815260408083206001600160a01b03851684529091529020805460ff19166001179055610a793390565b6001600160a01b0316816001600160a01b0316837f2f8788117e7eff1d82e926ec794901d17c78024a50270940304540a733656f0d60405160405180910390a45050565b6000828152602081815260408083206001600160a01b038516845290915290205460ff1615610513576000828152602081815260408083206001600160a01b0385168085529252808320805460ff1916905551339285917ff6391f5c32d9c69d2a47ea670b442974b53935d1edc7fd64eb21e047a839171b9190a45050565b600081831015610b4c5781610b4e565b825b9392505050565b604080516001600160a01b0385811660248301528416604482015260648082018490528251808303909101815260849091019091526020810180517bffffffffffffffffffffffffffffffffffffffffffffffffffffffff166323b872dd60e01b179052610bc4908590610c48565b50505050565b6000828152602081815260408083206001600160a01b038516845290915290205460ff1661051357610c06816001600160a01b03166014610d2d565b610c11836020610d2d565b604051602001610c229291906111bb565b60408051601f198184030181529082905262461bcd60e51b82526105009160040161123c565b6000610c9d826040518060400160405280602081526020017f5361666545524332303a206c6f772d6c6576656c2063616c6c206661696c6564815250856001600160a01b0316610ed69092919063ffffffff16565b8051909150156104815780806020019051810190610cbb91906110c3565b6104815760405162461bcd60e51b815260206004820152602a60248201527f5361666545524332303a204552433230206f7065726174696f6e20646964206e60448201527f6f742073756363656564000000000000000000000000000000000000000000006064820152608401610500565b60606000610d3c8360026112a9565b610d4790600261126f565b67ffffffffffffffff811115610d5f57610d5f611337565b6040519080825280601f01601f191660200182016040528015610d89576020820181803683370190505b509050600360fc1b81600081518110610da457610da4611321565b60200101906001600160f81b031916908160001a905350600f60fb1b81600181518110610dd357610dd3611321565b60200101906001600160f81b031916908160001a9053506000610df78460026112a9565b610e0290600161126f565b90505b6001811115610e87577f303132333435363738396162636465660000000000000000000000000000000085600f1660108110610e4357610e43611321565b1a60f81b828281518110610e5957610e59611321565b60200101906001600160f81b031916908160001a90535060049490941c93610e80816112f4565b9050610e05565b508315610b4e5760405162461bcd60e51b815260206004820181905260248201527f537472696e67733a20686578206c656e67746820696e73756666696369656e746044820152606401610500565b6060610ee58484600085610eed565b949350505050565b606082471015610f655760405162461bcd60e51b815260206004820152602660248201527f416464726573733a20696e73756666696369656e742062616c616e636520666f60448201527f722063616c6c00000000000000000000000000000000000000000000000000006064820152608401610500565b6001600160a01b0385163b610fbc5760405162461bcd60e51b815260206004820152601d60248201527f416464726573733a2063616c6c20746f206e6f6e2d636f6e74726163740000006044820152606401610500565b600080866001600160a01b03168587604051610fd8919061119f565b60006040518083038185875af1925050503d8060008114611015576040519150601f19603f3d011682016040523d82523d6000602084013e61101a565b606091505b509150915061102a828286611035565b979650505050505050565b60608315611044575081610b4e565b8251156110545782518084602001fd5b8160405162461bcd60e51b8152600401610500919061123c565b80356001600160a01b038116811461108557600080fd5b919050565b600080600080608085870312156110a057600080fd5b6110a98561106e565b966020860135965060408601359560600135945092505050565b6000602082840312156110d557600080fd5b81518015158114610b4e57600080fd5b6000602082840312156110f757600080fd5b5035919050565b6000806040838503121561111157600080fd5b823591506111216020840161106e565b90509250929050565b60006020828403121561113c57600080fd5b81356001600160e01b031981168114610b4e57600080fd5b60006020828403121561116657600080fd5b5051919050565b6000806000806080858703121561118357600080fd5b5050823594602084013594506040840135936060013592509050565b600082516111b18184602087016112c8565b9190910192915050565b7f416363657373436f6e74726f6c3a206163636f756e74200000000000000000008152600083516111f38160178501602088016112c8565b7f206973206d697373696e6720726f6c652000000000000000000000000000000060179184019182015283516112308160288401602088016112c8565b01602801949350505050565b602081526000825180602084015261125b8160408501602087016112c8565b601f01601f19169190910160400192915050565b600082198211156112825761128261130b565b500190565b6000826112a457634e487b7160e01b600052601260045260246000fd5b500490565b60008160001904831182151516156112c3576112c361130b565b500290565b60005b838110156112e35781810151838201526020016112cb565b83811115610bc45750506000910152565b6000816113035761130361130b565b506000190190565b634e487b7160e01b600052601160045260246000fd5b634e487b7160e01b600052603260045260246000fd5b634e487b7160e01b600052604160045260246000fdfea164736f6c6343000807000a",
  "linkReferences": {},
  "deployedLinkReferences": {}
}