{
  "_format": "hh-sol-artifact-1",
  "contractName": "CredmarkAccessKey",
  "sourceName": "contracts/consumer/CredmarkAccessKey.sol",
  "abi": [
    {
      "inputs": [
        {
          "internalType": "contract IStakedCredmark",
          "name": "_stakedCredmark",
          "type": "address"
        },
        {
          "internalType": "contract IERC20",
          "name": "_credmark",
          "type": "address"
        },
        {
          "internalType": "address",
          "name": "_credmarkDAO",
          "type": "address"
        },
        {
          "internalType": "uint256",
          "name": "_feePerSecond",
          "type": "uint256"
        },
        {
          "internalType": "uint256",
          "name": "_liquidatorRewardBp",
          "type": "uint256"
        },
        {
          "internalType": "uint256",
          "name": "_stakedCmkSweepShareBp",
          "type": "uint256"
        }
      ],
      "stateMutability": "nonpayable",
      "type": "constructor"
    },
    {
      "anonymous": false,
      "inputs": [
        {
          "indexed": false,
          "internalType": "uint256",
          "name": "tokenId",
          "type": "uint256"
        }
      ],
      "name": "AccessKeyBurned",
      "type": "event"
    },
    {
      "anonymous": false,
      "inputs": [
        {
          "indexed": false,
          "internalType": "uint256",
          "name": "tokenId",
          "type": "uint256"
        },
        {
          "indexed": false,
          "internalType": "address",
          "name": "liquidator",
          "type": "address"
        },
        {
          "indexed": false,
          "internalType": "uint256",
          "name": "reward",
          "type": "uint256"
        }
      ],
      "name": "AccessKeyLiquidated",
      "type": "event"
    },
    {
      "anonymous": false,
      "inputs": [
        {
          "indexed": false,
          "internalType": "uint256",
          "name": "tokenId",
          "type": "uint256"
        }
      ],
      "name": "AccessKeyMinted",
      "type": "event"
    },
    {
      "anonymous": false,
      "inputs": [
        {
          "indexed": true,
          "internalType": "address",
          "name": "owner",
          "type": "address"
        },
        {
          "indexed": true,
          "internalType": "address",
          "name": "approved",
          "type": "address"
        },
        {
          "indexed": true,
          "internalType": "uint256",
          "name": "tokenId",
          "type": "uint256"
        }
      ],
      "name": "Approval",
      "type": "event"
    },
    {
      "anonymous": false,
      "inputs": [
        {
          "indexed": true,
          "internalType": "address",
          "name": "owner",
          "type": "address"
        },
        {
          "indexed": true,
          "internalType": "address",
          "name": "operator",
          "type": "address"
        },
        {
          "indexed": false,
          "internalType": "bool",
          "name": "approved",
          "type": "bool"
        }
      ],
      "name": "ApprovalForAll",
      "type": "event"
    },
    {
      "anonymous": false,
      "inputs": [
        {
          "indexed": false,
          "internalType": "uint256",
          "name": "tokenId",
          "type": "uint256"
        },
        {
          "indexed": false,
          "internalType": "uint256",
          "name": "amount",
          "type": "uint256"
        }
      ],
      "name": "CredmarkAddedToKey",
      "type": "event"
    },
    {
      "anonymous": false,
      "inputs": [
        {
          "indexed": false,
          "internalType": "uint256",
          "name": "feeAmount",
          "type": "uint256"
        }
      ],
      "name": "FeeChanged",
      "type": "event"
    },
    {
      "anonymous": false,
      "inputs": [
        {
          "indexed": false,
          "internalType": "uint256",
          "name": "liquidatorRewardBp",
          "type": "uint256"
        }
      ],
      "name": "LiquidatorRewardChanged",
      "type": "event"
    },
    {
      "anonymous": false,
      "inputs": [
        {
          "indexed": true,
          "internalType": "address",
          "name": "previousOwner",
          "type": "address"
        },
        {
          "indexed": true,
          "internalType": "address",
          "name": "newOwner",
          "type": "address"
        }
      ],
      "name": "OwnershipTransferred",
      "type": "event"
    },
    {
      "anonymous": false,
      "inputs": [
        {
          "indexed": false,
          "internalType": "uint256",
          "name": "stakedCmkShareBp",
          "type": "uint256"
        }
      ],
      "name": "StakedCmkSweepShareChanged",
      "type": "event"
    },
    {
      "anonymous": false,
      "inputs": [
        {
          "indexed": false,
          "internalType": "uint256",
          "name": "cmkToSCmk",
          "type": "uint256"
        },
        {
          "indexed": false,
          "internalType": "uint256",
          "name": "cmkToDao",
          "type": "uint256"
        }
      ],
      "name": "Sweeped",
      "type": "event"
    },
    {
      "anonymous": false,
      "inputs": [
        {
          "indexed": true,
          "internalType": "address",
          "name": "from",
          "type": "address"
        },
        {
          "indexed": true,
          "internalType": "address",
          "name": "to",
          "type": "address"
        },
        {
          "indexed": true,
          "internalType": "uint256",
          "name": "tokenId",
          "type": "uint256"
        }
      ],
      "name": "Transfer",
      "type": "event"
    },
    {
      "inputs": [
        {
          "internalType": "uint256",
          "name": "tokenId",
          "type": "uint256"
        },
        {
          "internalType": "uint256",
          "name": "cmkAmount",
          "type": "uint256"
        }
      ],
      "name": "addCmk",
      "outputs": [],
      "stateMutability": "nonpayable",
      "type": "function"
    },
    {
      "inputs": [
        {
          "internalType": "address",
          "name": "to",
          "type": "address"
        },
        {
          "internalType": "uint256",
          "name": "tokenId",
          "type": "uint256"
        }
      ],
      "name": "approve",
      "outputs": [],
      "stateMutability": "nonpayable",
      "type": "function"
    },
    {
      "inputs": [
        {
          "internalType": "address",
          "name": "owner",
          "type": "address"
        }
      ],
      "name": "balanceOf",
      "outputs": [
        {
          "internalType": "uint256",
          "name": "",
          "type": "uint256"
        }
      ],
      "stateMutability": "view",
      "type": "function"
    },
    {
      "inputs": [
        {
          "internalType": "uint256",
          "name": "tokenId",
          "type": "uint256"
        }
      ],
      "name": "burn",
      "outputs": [],
      "stateMutability": "nonpayable",
      "type": "function"
    },
    {
      "inputs": [
        {
          "internalType": "uint256",
          "name": "tokenId",
          "type": "uint256"
        }
      ],
      "name": "cmkValue",
      "outputs": [
        {
          "internalType": "uint256",
          "name": "",
          "type": "uint256"
        }
      ],
      "stateMutability": "view",
      "type": "function"
    },
    {
      "inputs": [],
      "name": "credmark",
      "outputs": [
        {
          "internalType": "contract IERC20",
          "name": "",
          "type": "address"
        }
      ],
      "stateMutability": "view",
      "type": "function"
    },
    {
      "inputs": [],
      "name": "credmarkDAO",
      "outputs": [
        {
          "internalType": "address",
          "name": "",
          "type": "address"
        }
      ],
      "stateMutability": "view",
      "type": "function"
    },
    {
      "inputs": [
        {
          "internalType": "uint256",
          "name": "",
          "type": "uint256"
        }
      ],
      "name": "fees",
      "outputs": [
        {
          "internalType": "uint256",
          "name": "fromTimestamp",
          "type": "uint256"
        },
        {
          "internalType": "uint256",
          "name": "feePerSecond",
          "type": "uint256"
        }
      ],
      "stateMutability": "view",
      "type": "function"
    },
    {
      "inputs": [
        {
          "internalType": "uint256",
          "name": "tokenId",
          "type": "uint256"
        }
      ],
      "name": "feesAccumulated",
      "outputs": [
        {
          "internalType": "uint256",
          "name": "aggFees",
          "type": "uint256"
        }
      ],
      "stateMutability": "view",
      "type": "function"
    },
    {
      "inputs": [
        {
          "internalType": "uint256",
          "name": "tokenId",
          "type": "uint256"
        }
      ],
      "name": "getApproved",
      "outputs": [
        {
          "internalType": "address",
          "name": "",
          "type": "address"
        }
      ],
      "stateMutability": "view",
      "type": "function"
    },
    {
      "inputs": [],
      "name": "getFeesCount",
      "outputs": [
        {
          "internalType": "uint256",
          "name": "",
          "type": "uint256"
        }
      ],
      "stateMutability": "view",
      "type": "function"
    },
    {
      "inputs": [
        {
          "internalType": "address",
          "name": "owner",
          "type": "address"
        },
        {
          "internalType": "address",
          "name": "operator",
          "type": "address"
        }
      ],
      "name": "isApprovedForAll",
      "outputs": [
        {
          "internalType": "bool",
          "name": "",
          "type": "bool"
        }
      ],
      "stateMutability": "view",
      "type": "function"
    },
    {
      "inputs": [
        {
          "internalType": "uint256",
          "name": "tokenId",
          "type": "uint256"
        }
      ],
      "name": "liquidate",
      "outputs": [],
      "stateMutability": "nonpayable",
      "type": "function"
    },
    {
      "inputs": [],
      "name": "liquidatorRewardBp",
      "outputs": [
        {
          "internalType": "uint256",
          "name": "",
          "type": "uint256"
        }
      ],
      "stateMutability": "view",
      "type": "function"
    },
    {
      "inputs": [
        {
          "internalType": "uint256",
          "name": "cmkAmount",
          "type": "uint256"
        }
      ],
      "name": "mint",
      "outputs": [
        {
          "internalType": "uint256",
          "name": "tokenId",
          "type": "uint256"
        }
      ],
      "stateMutability": "nonpayable",
      "type": "function"
    },
    {
      "inputs": [],
      "name": "name",
      "outputs": [
        {
          "internalType": "string",
          "name": "",
          "type": "string"
        }
      ],
      "stateMutability": "view",
      "type": "function"
    },
    {
      "inputs": [],
      "name": "owner",
      "outputs": [
        {
          "internalType": "address",
          "name": "",
          "type": "address"
        }
      ],
      "stateMutability": "view",
      "type": "function"
    },
    {
      "inputs": [
        {
          "internalType": "uint256",
          "name": "tokenId",
          "type": "uint256"
        }
      ],
      "name": "ownerOf",
      "outputs": [
        {
          "internalType": "address",
          "name": "",
          "type": "address"
        }
      ],
      "stateMutability": "view",
      "type": "function"
    },
    {
      "inputs": [],
      "name": "renounceOwnership",
      "outputs": [],
      "stateMutability": "nonpayable",
      "type": "function"
    },
    {
      "inputs": [
        {
          "internalType": "address",
          "name": "from",
          "type": "address"
        },
        {
          "internalType": "address",
          "name": "to",
          "type": "address"
        },
        {
          "internalType": "uint256",
          "name": "tokenId",
          "type": "uint256"
        }
      ],
      "name": "safeTransferFrom",
      "outputs": [],
      "stateMutability": "nonpayable",
      "type": "function"
    },
    {
      "inputs": [
        {
          "internalType": "address",
          "name": "from",
          "type": "address"
        },
        {
          "internalType": "address",
          "name": "to",
          "type": "address"
        },
        {
          "internalType": "uint256",
          "name": "tokenId",
          "type": "uint256"
        },
        {
          "internalType": "bytes",
          "name": "_data",
          "type": "bytes"
        }
      ],
      "name": "safeTransferFrom",
      "outputs": [],
      "stateMutability": "nonpayable",
      "type": "function"
    },
    {
      "inputs": [
        {
          "internalType": "address",
          "name": "operator",
          "type": "address"
        },
        {
          "internalType": "bool",
          "name": "approved",
          "type": "bool"
        }
      ],
      "name": "setApprovalForAll",
      "outputs": [],
      "stateMutability": "nonpayable",
      "type": "function"
    },
    {
      "inputs": [
        {
          "internalType": "uint256",
          "name": "feePerSecond",
          "type": "uint256"
        }
      ],
      "name": "setFee",
      "outputs": [],
      "stateMutability": "nonpayable",
      "type": "function"
    },
    {
      "inputs": [
        {
          "internalType": "uint256",
          "name": "_liquidatorRewardBp",
          "type": "uint256"
        }
      ],
      "name": "setLiquidatorReward",
      "outputs": [],
      "stateMutability": "nonpayable",
      "type": "function"
    },
    {
      "inputs": [
        {
          "internalType": "uint256",
          "name": "_stakedCmkSweepShareBp",
          "type": "uint256"
        }
      ],
      "name": "setStakedCmkSweepShare",
      "outputs": [],
      "stateMutability": "nonpayable",
      "type": "function"
    },
    {
      "inputs": [],
      "name": "stakedCmkSweepShareBp",
      "outputs": [
        {
          "internalType": "uint256",
          "name": "",
          "type": "uint256"
        }
      ],
      "stateMutability": "view",
      "type": "function"
    },
    {
      "inputs": [],
      "name": "stakedCredmark",
      "outputs": [
        {
          "internalType": "contract IStakedCredmark",
          "name": "",
          "type": "address"
        }
      ],
      "stateMutability": "view",
      "type": "function"
    },
    {
      "inputs": [
        {
          "internalType": "bytes4",
          "name": "interfaceId",
          "type": "bytes4"
        }
      ],
      "name": "supportsInterface",
      "outputs": [
        {
          "internalType": "bool",
          "name": "",
          "type": "bool"
        }
      ],
      "stateMutability": "view",
      "type": "function"
    },
    {
      "inputs": [],
      "name": "sweep",
      "outputs": [],
      "stateMutability": "nonpayable",
      "type": "function"
    },
    {
      "inputs": [],
      "name": "symbol",
      "outputs": [
        {
          "internalType": "string",
          "name": "",
          "type": "string"
        }
      ],
      "stateMutability": "view",
      "type": "function"
    },
    {
      "inputs": [
        {
          "internalType": "uint256",
          "name": "index",
          "type": "uint256"
        }
      ],
      "name": "tokenByIndex",
      "outputs": [
        {
          "internalType": "uint256",
          "name": "",
          "type": "uint256"
        }
      ],
      "stateMutability": "view",
      "type": "function"
    },
    {
      "inputs": [
        {
          "internalType": "address",
          "name": "owner",
          "type": "address"
        },
        {
          "internalType": "uint256",
          "name": "index",
          "type": "uint256"
        }
      ],
      "name": "tokenOfOwnerByIndex",
      "outputs": [
        {
          "internalType": "uint256",
          "name": "",
          "type": "uint256"
        }
      ],
      "stateMutability": "view",
      "type": "function"
    },
    {
      "inputs": [
        {
          "internalType": "uint256",
          "name": "tokenId",
          "type": "uint256"
        }
      ],
      "name": "tokenURI",
      "outputs": [
        {
          "internalType": "string",
          "name": "",
          "type": "string"
        }
      ],
      "stateMutability": "view",
      "type": "function"
    },
    {
      "inputs": [],
      "name": "totalSupply",
      "outputs": [
        {
          "internalType": "uint256",
          "name": "",
          "type": "uint256"
        }
      ],
      "stateMutability": "view",
      "type": "function"
    },
    {
      "inputs": [
        {
          "internalType": "address",
          "name": "from",
          "type": "address"
        },
        {
          "internalType": "address",
          "name": "to",
          "type": "address"
        },
        {
          "internalType": "uint256",
          "name": "tokenId",
          "type": "uint256"
        }
      ],
      "name": "transferFrom",
      "outputs": [],
      "stateMutability": "nonpayable",
      "type": "function"
    },
    {
      "inputs": [
        {
          "internalType": "address",
          "name": "newOwner",
          "type": "address"
        }
      ],
      "name": "transferOwnership",
      "outputs": [],
      "stateMutability": "nonpayable",
      "type": "function"
    }
  ],
  "bytecode": "0x60806040523480156200001157600080fd5b5060405162002f9138038062002f91833981016040819052620000349162000284565b6040805180820182526011815270437265646d61726b4163636573734b657960781b602080830191825283518085019094526009845268616363657373434d4b60b81b9084015281519192916200008e91600091620001de565b508051620000a4906001906020840190620001de565b505050620000c1620000bb6200018860201b60201c565b6200018c565b600f80546001600160a01b03199081166001600160a01b0398891617909155601180548216968816969096179095556010805490951693909516929092179092556040805180820190915242815260208101928352600c805460018101825560009190915290517fdf6966c971051c3d54ec59162606531493a51404a002842f56009d7e5cf4a8c760029092029182015591517fdf6966c971051c3d54ec59162606531493a51404a002842f56009d7e5cf4a8c890920191909155600d55600e556200034a565b3390565b600a80546001600160a01b038381166001600160a01b0319831681179093556040519116919082907f8be0079c531659141344cd1fd0a4f28419497f9722a3daafe3b4186f6b6457e090600090a35050565b828054620001ec90620002f4565b90600052602060002090601f0160209004810192826200021057600085556200025b565b82601f106200022b57805160ff19168380011785556200025b565b828001600101855582156200025b579182015b828111156200025b5782518255916020019190600101906200023e565b50620002699291506200026d565b5090565b5b808211156200026957600081556001016200026e565b60008060008060008060c087890312156200029e57600080fd5b8651620002ab8162000331565b6020880151909650620002be8162000331565b6040880151909550620002d18162000331565b80945050606087015192506080870151915060a087015190509295509295509295565b600181811c908216806200030957607f821691505b602082108114156200032b57634e487b7160e01b600052602260045260246000fd5b50919050565b6001600160a01b03811681146200034757600080fd5b50565b612c37806200035a6000396000f3fe608060405234801561001057600080fd5b506004361061025c5760003560e01c806369fe0e2d11610145578063b848125b116100bd578063de3c0c971161008c578063e9e441bb11610071578063e9e441bb14610504578063f2fde38b14610517578063febd39a81461052a57600080fd5b8063de3c0c97146104b5578063e985e9c5146104c857600080fd5b8063b848125b14610469578063b88d4fde1461047c578063c87b56dd1461048f578063cdb4c75a146104a257600080fd5b806390c2b6d011610114578063a0712d68116100f9578063a0712d6814610430578063a22cb46514610443578063b4bfb2021461045657600080fd5b806390c2b6d01461041f57806395d89b411461042857600080fd5b806369fe0e2d146103e057806370a08231146103f3578063715018a6146104065780638da5cb5b1461040e57600080fd5b806335faa416116101d85780634acc79ed116101a7578063526f7aa81161018c578063526f7aa8146103b25780636352211e146103c557806364f588a6146103d857600080fd5b80634acc79ed146103775780634f6ccce71461039f57600080fd5b806335faa41614610336578063415f12401461033e57806342842e0e1461035157806342966c681461036457600080fd5b8063095ea7b31161022f57806322a445d51161021457806322a445d51461030757806323b872dd146103105780632f745c591461032357600080fd5b8063095ea7b3146102ea57806318160ddd146102ff57600080fd5b806301ffc9a71461026157806306cb71ce1461028957806306fdde03146102aa578063081812fc146102bf575b600080fd5b61027461026f366004612957565b61053d565b60405190151581526020015b60405180910390f35b61029c610297366004612991565b61054e565b604051908152602001610280565b6102b2610632565b6040516102809190612a7c565b6102d26102cd366004612991565b6106c4565b6040516001600160a01b039091168152602001610280565b6102fd6102f8366004612910565b61075e565b005b60085461029c565b61029c600d5481565b6102fd61031e3660046127c1565b610874565b61029c610331366004612910565b6108fb565b6102fd6109a3565b6102fd61034c366004612991565b610c1b565b6102fd61035f3660046127c1565b610d83565b6102fd610372366004612991565b610d9e565b61038a610385366004612991565b610e13565b60408051928352602083019190915201610280565b61029c6103ad366004612991565b610e41565b6011546102d2906001600160a01b031681565b6102d26103d3366004612991565b610ee5565b600c5461029c565b6102fd6103ee366004612991565b610f70565b61029c610401366004612773565b61107c565b6102fd611116565b600a546001600160a01b03166102d2565b61029c600e5481565b6102b261117c565b61029c61043e366004612991565b61118b565b6102fd6104513660046128d9565b611203565b61029c610464366004612991565b6112c8565b600f546102d2906001600160a01b031681565b6102fd61048a3660046127fd565b611359565b6102b261049d366004612991565b6113e7565b6102fd6104b03660046129c3565b6114dd565b6010546102d2906001600160a01b031681565b6102746104d636600461278e565b6001600160a01b03918216600090815260056020908152604080832093909416825291909152205460ff1690565b6102fd610512366004612991565b61173d565b6102fd610525366004612773565b61181e565b6102fd610538366004612991565b6118fd565b6000610548826119de565b92915050565b600081815260126020526040812054600c545b801561062b576000600c610576600184612ada565b8154811061058657610586612bda565b9060005260206000209060020201905060006105a6848360000154611a03565b600c5490915042908410156105dd57600c84815481106105c8576105c8612bda565b90600052602060002090600202016000015490505b6105e78282612ada565b83600101546105f69190612abb565b6106009087612a8f565b9550848360000154116106155750505061062b565b505050808061062390612b1d565b915050610561565b5050919050565b60606000805461064190612b34565b80601f016020809104026020016040519081016040528092919081815260200182805461066d90612b34565b80156106ba5780601f1061068f576101008083540402835291602001916106ba565b820191906000526020600020905b81548152906001019060200180831161069d57829003601f168201915b5050505050905090565b6000818152600260205260408120546001600160a01b03166107425760405162461bcd60e51b815260206004820152602c60248201527f4552433732313a20617070726f76656420717565727920666f72206e6f6e657860448201526b34b9ba32b73a103a37b5b2b760a11b60648201526084015b60405180910390fd5b506000908152600460205260409020546001600160a01b031690565b600061076982610ee5565b9050806001600160a01b0316836001600160a01b031614156107d75760405162461bcd60e51b815260206004820152602160248201527f4552433732313a20617070726f76616c20746f2063757272656e74206f776e656044820152603960f91b6064820152608401610739565b336001600160a01b03821614806107f357506107f381336104d6565b6108655760405162461bcd60e51b815260206004820152603860248201527f4552433732313a20617070726f76652063616c6c6572206973206e6f74206f7760448201527f6e6572206e6f7220617070726f76656420666f7220616c6c00000000000000006064820152608401610739565b61086f8383611a1a565b505050565b61087e3382611a88565b6108f05760405162461bcd60e51b815260206004820152603160248201527f4552433732313a207472616e736665722063616c6c6572206973206e6f74206f60448201527f776e6572206e6f7220617070726f7665640000000000000000000000000000006064820152608401610739565b61086f838383611b7f565b60006109068361107c565b821061097a5760405162461bcd60e51b815260206004820152602b60248201527f455243373231456e756d657261626c653a206f776e657220696e646578206f7560448201527f74206f6620626f756e64730000000000000000000000000000000000000000006064820152608401610739565b506001600160a01b03919091166000908152600660209081526040808320938352929052205490565b600e546011546040516370a0823160e01b81523060048201526000926127109290916001600160a01b03909116906370a082319060240160206040518083038186803b1580156109f257600080fd5b505afa158015610a06573d6000803e3d6000fd5b505050506040513d601f19601f82011682018060405250810190610a2a91906129aa565b610a349190612abb565b610a3e9190612aa7565b90508015610ad057601154600f5460405163a9059cbb60e01b81526001600160a01b0391821660048201526024810184905291169063a9059cbb90604401602060405180830381600087803b158015610a9657600080fd5b505af1158015610aaa573d6000803e3d6000fd5b505050506040513d601f19601f82011682018060405250810190610ace919061293a565b505b6011546040516370a0823160e01b81523060048201526000916001600160a01b0316906370a082319060240160206040518083038186803b158015610b1457600080fd5b505afa158015610b28573d6000803e3d6000fd5b505050506040513d601f19601f82011682018060405250810190610b4c91906129aa565b90508015610bde5760115460105460405163a9059cbb60e01b81526001600160a01b0391821660048201526024810184905291169063a9059cbb90604401602060405180830381600087803b158015610ba457600080fd5b505af1158015610bb8573d6000803e3d6000fd5b505050506040513d601f19601f82011682018060405250810190610bdc919061293a565b505b60408051838152602081018390527fbd4f5f1422a9e6afe3b1faad186683c780f8457b54665a07f0f9242cf9792abe910160405180910390a15050565b80610c25816112c8565b610c2e8261054e565b1015610c7c5760405162461bcd60e51b815260206004820152601260248201527f4e6f74206c69717569646961746561626c6500000000000000000000000000006044820152606401610739565b6000610c87836112c8565b9050610c9283611d3e565b6000612710600d5483610ca59190612abb565b610caf9190612aa7565b90508015610d3d5760115460405163a9059cbb60e01b8152336004820152602481018390526001600160a01b039091169063a9059cbb90604401602060405180830381600087803b158015610d0357600080fd5b505af1158015610d17573d6000803e3d6000fd5b505050506040513d601f19601f82011682018060405250810190610d3b919061293a565b505b604080518581523360208201529081018290527fa5c508403d750e76ac1d553e2aa14e02ea3f934995aad8da4856a4c48730eff99060600160405180910390a150505050565b61086f83838360405180602001604052806000815250611359565b610da781610ee5565b6001600160a01b0316336001600160a01b031614610e075760405162461bcd60e51b815260206004820152601d60248201527f4f6e6c79206f776e65722063616e206275726e207468656972204e46540000006044820152606401610739565b610e1081611d3e565b50565b600c8181548110610e2357600080fd5b60009182526020909120600290910201805460019091015490915082565b6000610e4c60085490565b8210610ec05760405162461bcd60e51b815260206004820152602c60248201527f455243373231456e756d657261626c653a20676c6f62616c20696e646578206f60448201527f7574206f6620626f756e647300000000000000000000000000000000000000006064820152608401610739565b60088281548110610ed357610ed3612bda565b90600052602060002001549050919050565b6000818152600260205260408120546001600160a01b0316806105485760405162461bcd60e51b815260206004820152602960248201527f4552433732313a206f776e657220717565727920666f72206e6f6e657869737460448201527f656e7420746f6b656e00000000000000000000000000000000000000000000006064820152608401610739565b600a546001600160a01b03163314610fca5760405162461bcd60e51b815260206004820181905260248201527f4f776e61626c653a2063616c6c6572206973206e6f7420746865206f776e65726044820152606401610739565b60408051808201825242815260208101838152600c8054600181018255600091909152915160029092027fdf6966c971051c3d54ec59162606531493a51404a002842f56009d7e5cf4a8c7810192909255517fdf6966c971051c3d54ec59162606531493a51404a002842f56009d7e5cf4a8c890910155517f6bbc57480a46553fa4d156ce702beef5f3ad66303b0ed1a5d4cb44966c6584c3906110719083815260200190565b60405180910390a150565b60006001600160a01b0382166110fa5760405162461bcd60e51b815260206004820152602a60248201527f4552433732313a2062616c616e636520717565727920666f7220746865207a6560448201527f726f2061646472657373000000000000000000000000000000000000000000006064820152608401610739565b506001600160a01b031660009081526003602052604090205490565b600a546001600160a01b031633146111705760405162461bcd60e51b815260206004820181905260248201527f4f776e61626c653a2063616c6c6572206973206e6f7420746865206f776e65726044820152606401610739565b61117a6000611ee5565b565b60606001805461064190612b34565b6000611196600b5490565b600081815260126020526040902042905590506111b33382611f37565b6111bd81836114dd565b6111cb600b80546001019055565b6040518181527f50765ec575bbd65ca3d7bd23da2303605c5c1f31293142623fb5046b066f06a19060200160405180910390a1919050565b6001600160a01b03821633141561125c5760405162461bcd60e51b815260206004820152601960248201527f4552433732313a20617070726f766520746f2063616c6c6572000000000000006044820152606401610739565b3360008181526005602090815260408083206001600160a01b03871680855290835292819020805460ff191686151590811790915590519081529192917f17307eab39ab6107e8899845ad3d59bd9653f200f220920489ca2b5937696c31910160405180910390a35050565b600f54600082815260136020526040808220549051633332abbf60e01b815291926001600160a01b031691633332abbf916113099160040190815260200190565b60206040518083038186803b15801561132157600080fd5b505afa158015611335573d6000803e3d6000fd5b505050506040513d601f19601f8201168201806040525081019061054891906129aa565b6113633383611a88565b6113d55760405162461bcd60e51b815260206004820152603160248201527f4552433732313a207472616e736665722063616c6c6572206973206e6f74206f60448201527f776e6572206e6f7220617070726f7665640000000000000000000000000000006064820152608401610739565b6113e184848484611f55565b50505050565b6000818152600260205260409020546060906001600160a01b03166114745760405162461bcd60e51b815260206004820152602f60248201527f4552433732314d657461646174613a2055524920717565727920666f72206e6f60448201527f6e6578697374656e7420746f6b656e00000000000000000000000000000000006064820152608401610739565b600061148b60408051602081019091526000815290565b905060008151116114ab57604051806020016040528060008152506114d6565b806114b584611fd3565b6040516020016114c6929190612a11565b6040516020818303038152906040525b9392505050565b6000828152600260205260409020546001600160a01b03166115415760405162461bcd60e51b815260206004820152600d60248201527f4e6f207375636820746f6b656e000000000000000000000000000000000000006044820152606401610739565b601154600f5460405163095ea7b360e01b81526001600160a01b0391821660048201526024810184905291169063095ea7b390604401602060405180830381600087803b15801561159157600080fd5b505af11580156115a5573d6000803e3d6000fd5b505050506040513d601f19601f820116820180604052508101906115c9919061293a565b506011546040516323b872dd60e01b8152336004820152306024820152604481018390526001600160a01b03909116906323b872dd90606401602060405180830381600087803b15801561161c57600080fd5b505af1158015611630573d6000803e3d6000fd5b505050506040513d601f19601f82011682018060405250810190611654919061293a565b50600f546040516329011e4b60e21b8152600481018390526000916001600160a01b03169063a404792c90602401602060405180830381600087803b15801561169c57600080fd5b505af11580156116b0573d6000803e3d6000fd5b505050506040513d601f19601f820116820180604052508101906116d491906129aa565b9050806013600085815260200190815260200160002060008282546116f99190612a8f565b909155505060408051848152602081018490527f53c3713ae31607965b3b4cdb8890f86e6389cca1a81e1e3a2fefa45cd59a30af91015b60405180910390a1505050565b600a546001600160a01b031633146117975760405162461bcd60e51b815260206004820181905260248201527f4f776e61626c653a2063616c6c6572206973206e6f7420746865206f776e65726044820152606401610739565b6127108111156117e95760405162461bcd60e51b815260206004820181905260248201527f426173697320506f696e74206e6f7420696e20302d31303030302072616e67656044820152606401610739565b600d8190556040518181527fce4161b9f551355c88c6fb24a876adcaf777d4029c567841c964e022d06fbd3c90602001611071565b600a546001600160a01b031633146118785760405162461bcd60e51b815260206004820181905260248201527f4f776e61626c653a2063616c6c6572206973206e6f7420746865206f776e65726044820152606401610739565b6001600160a01b0381166118f45760405162461bcd60e51b815260206004820152602660248201527f4f776e61626c653a206e6577206f776e657220697320746865207a65726f206160448201527f64647265737300000000000000000000000000000000000000000000000000006064820152608401610739565b610e1081611ee5565b600a546001600160a01b031633146119575760405162461bcd60e51b815260206004820181905260248201527f4f776e61626c653a2063616c6c6572206973206e6f7420746865206f776e65726044820152606401610739565b6127108111156119a95760405162461bcd60e51b815260206004820181905260248201527f426173697320506f696e74206e6f7420696e20302d31303030302072616e67656044820152606401610739565b600e8190556040518181527fa6ac61de9146848ae81c020a098ef7f16e2bdacc46c9b8c900b8e8bf0e68982d90602001611071565b60006001600160e01b0319821663780e9d6360e01b14806105485750610548826120e9565b600081831115611a14575081610548565b50919050565b600081815260046020526040902080546001600160a01b0319166001600160a01b0384169081179091558190611a4f82610ee5565b6001600160a01b03167f8c5be1e5ebec7d5bd14f71427d1e84f3dd0314c0f7b2291e5b200ac8c7c3b92560405160405180910390a45050565b6000818152600260205260408120546001600160a01b0316611b015760405162461bcd60e51b815260206004820152602c60248201527f4552433732313a206f70657261746f7220717565727920666f72206e6f6e657860448201526b34b9ba32b73a103a37b5b2b760a11b6064820152608401610739565b6000611b0c83610ee5565b9050806001600160a01b0316846001600160a01b03161480611b475750836001600160a01b0316611b3c846106c4565b6001600160a01b0316145b80611b7757506001600160a01b0380821660009081526005602090815260408083209388168352929052205460ff165b949350505050565b826001600160a01b0316611b9282610ee5565b6001600160a01b031614611c0e5760405162461bcd60e51b815260206004820152602960248201527f4552433732313a207472616e73666572206f6620746f6b656e2074686174206960448201527f73206e6f74206f776e00000000000000000000000000000000000000000000006064820152608401610739565b6001600160a01b038216611c705760405162461bcd60e51b8152602060048201526024808201527f4552433732313a207472616e7366657220746f20746865207a65726f206164646044820152637265737360e01b6064820152608401610739565b611c7b838383612139565b611c86600082611a1a565b6001600160a01b0383166000908152600360205260408120805460019290611caf908490612ada565b90915550506001600160a01b0382166000908152600360205260408120805460019290611cdd908490612a8f565b909155505060008181526002602052604080822080546001600160a01b0319166001600160a01b0386811691821790925591518493918716917fddf252ad1be2c89b69c2b068fc378daa952ba7f163c4a11628f55a4df523b3ef91a4505050565b6000611d498261054e565b9050611d54826112c8565b611d5d8361054e565b1115611d6f57611d6c826112c8565b90505b600f5460008381526013602052604090819020549051633edac5a760e01b81526001600160a01b0390921691633edac5a791611db19160040190815260200190565b600060405180830381600087803b158015611dcb57600080fd5b505af1158015611ddf573d6000803e3d6000fd5b50505050600081611def846112c8565b611df99190612ada565b90508015611e9d576011546001600160a01b031663a9059cbb611e1b85610ee5565b6040516001600160e01b031960e084901b1681526001600160a01b03909116600482015260248101849052604401602060405180830381600087803b158015611e6357600080fd5b505af1158015611e77573d6000803e3d6000fd5b505050506040513d601f19601f82011682018060405250810190611e9b919061293a565b505b600083815260136020526040812055611eb583612144565b6040518381527f8a2f88e431b7f669d2bf61bc245bce935aa2890b1242d500144740059e2d647090602001611730565b600a80546001600160a01b038381166001600160a01b0319831681179093556040519116919082907f8be0079c531659141344cd1fd0a4f28419497f9722a3daafe3b4186f6b6457e090600090a35050565b611f518282604051806020016040528060008152506121eb565b5050565b611f60848484611b7f565b611f6c84848484612269565b6113e15760405162461bcd60e51b815260206004820152603260248201527f4552433732313a207472616e7366657220746f206e6f6e20455243373231526560448201527131b2b4bb32b91034b6b83632b6b2b73a32b960711b6064820152608401610739565b606081611ff75750506040805180820190915260018152600360fc1b602082015290565b8160005b8115612021578061200b81612b69565b915061201a9050600a83612aa7565b9150611ffb565b60008167ffffffffffffffff81111561203c5761203c612bf0565b6040519080825280601f01601f191660200182016040528015612066576020820181803683370190505b5090505b8415611b775761207b600183612ada565b9150612088600a86612b84565b612093906030612a8f565b60f81b8183815181106120a8576120a8612bda565b60200101907effffffffffffffffffffffffffffffffffffffffffffffffffffffffffffff1916908160001a9053506120e2600a86612aa7565b945061206a565b60006001600160e01b031982166380ac58cd60e01b148061211a57506001600160e01b03198216635b5e139f60e01b145b8061054857506301ffc9a760e01b6001600160e01b0319831614610548565b61086f8383836123c1565b600061214f82610ee5565b905061215d81600084612139565b612168600083611a1a565b6001600160a01b0381166000908152600360205260408120805460019290612191908490612ada565b909155505060008281526002602052604080822080546001600160a01b0319169055518391906001600160a01b038416907fddf252ad1be2c89b69c2b068fc378daa952ba7f163c4a11628f55a4df523b3ef908390a45050565b6121f58383612479565b6122026000848484612269565b61086f5760405162461bcd60e51b815260206004820152603260248201527f4552433732313a207472616e7366657220746f206e6f6e20455243373231526560448201527131b2b4bb32b91034b6b83632b6b2b73a32b960711b6064820152608401610739565b60006001600160a01b0384163b156123b657604051630a85bd0160e11b81526001600160a01b0385169063150b7a02906122ad903390899088908890600401612a40565b602060405180830381600087803b1580156122c757600080fd5b505af19250505080156122f7575060408051601f3d908101601f191682019092526122f491810190612974565b60015b61239c573d808015612325576040519150601f19603f3d011682016040523d82523d6000602084013e61232a565b606091505b5080516123945760405162461bcd60e51b815260206004820152603260248201527f4552433732313a207472616e7366657220746f206e6f6e20455243373231526560448201527131b2b4bb32b91034b6b83632b6b2b73a32b960711b6064820152608401610739565b805181602001fd5b6001600160e01b031916630a85bd0160e11b149050611b77565b506001949350505050565b6001600160a01b03831661241c5761241781600880546000838152600960205260408120829055600182018355919091527ff3f7a9fe364faab93b216da50a3214154f22a0a2b415b23a84c8169e8b636ee30155565b61243f565b816001600160a01b0316836001600160a01b03161461243f5761243f83826125c7565b6001600160a01b0382166124565761086f81612664565b826001600160a01b0316826001600160a01b03161461086f5761086f8282612713565b6001600160a01b0382166124cf5760405162461bcd60e51b815260206004820181905260248201527f4552433732313a206d696e7420746f20746865207a65726f20616464726573736044820152606401610739565b6000818152600260205260409020546001600160a01b0316156125345760405162461bcd60e51b815260206004820152601c60248201527f4552433732313a20746f6b656e20616c7265616479206d696e746564000000006044820152606401610739565b61254060008383612139565b6001600160a01b0382166000908152600360205260408120805460019290612569908490612a8f565b909155505060008181526002602052604080822080546001600160a01b0319166001600160a01b03861690811790915590518392907fddf252ad1be2c89b69c2b068fc378daa952ba7f163c4a11628f55a4df523b3ef908290a45050565b600060016125d48461107c565b6125de9190612ada565b600083815260076020526040902054909150808214612631576001600160a01b03841660009081526006602090815260408083208584528252808320548484528184208190558352600790915290208190555b5060009182526007602090815260408084208490556001600160a01b039094168352600681528383209183525290812055565b60085460009061267690600190612ada565b6000838152600960205260408120546008805493945090928490811061269e5761269e612bda565b9060005260206000200154905080600883815481106126bf576126bf612bda565b60009182526020808320909101929092558281526009909152604080822084905585825281205560088054806126f7576126f7612bc4565b6001900381819060005260206000200160009055905550505050565b600061271e8361107c565b6001600160a01b039093166000908152600660209081526040808320868452825280832085905593825260079052919091209190915550565b80356001600160a01b038116811461276e57600080fd5b919050565b60006020828403121561278557600080fd5b6114d682612757565b600080604083850312156127a157600080fd5b6127aa83612757565b91506127b860208401612757565b90509250929050565b6000806000606084860312156127d657600080fd5b6127df84612757565b92506127ed60208501612757565b9150604084013590509250925092565b6000806000806080858703121561281357600080fd5b61281c85612757565b935061282a60208601612757565b925060408501359150606085013567ffffffffffffffff8082111561284e57600080fd5b818701915087601f83011261286257600080fd5b81358181111561287457612874612bf0565b604051601f8201601f19908116603f0116810190838211818310171561289c5761289c612bf0565b816040528281528a60208487010111156128b557600080fd5b82602086016020830137600060208483010152809550505050505092959194509250565b600080604083850312156128ec57600080fd5b6128f583612757565b9150602083013561290581612c06565b809150509250929050565b6000806040838503121561292357600080fd5b61292c83612757565b946020939093013593505050565b60006020828403121561294c57600080fd5b81516114d681612c06565b60006020828403121561296957600080fd5b81356114d681612c14565b60006020828403121561298657600080fd5b81516114d681612c14565b6000602082840312156129a357600080fd5b5035919050565b6000602082840312156129bc57600080fd5b5051919050565b600080604083850312156129d657600080fd5b50508035926020909101359150565b600081518084526129fd816020860160208601612af1565b601f01601f19169290920160200192915050565b60008351612a23818460208801612af1565b835190830190612a37818360208801612af1565b01949350505050565b60006001600160a01b03808716835280861660208401525083604083015260806060830152612a7260808301846129e5565b9695505050505050565b6020815260006114d660208301846129e5565b60008219821115612aa257612aa2612b98565b500190565b600082612ab657612ab6612bae565b500490565b6000816000190483118215151615612ad557612ad5612b98565b500290565b600082821015612aec57612aec612b98565b500390565b60005b83811015612b0c578181015183820152602001612af4565b838111156113e15750506000910152565b600081612b2c57612b2c612b98565b506000190190565b600181811c90821680612b4857607f821691505b60208210811415611a1457634e487b7160e01b600052602260045260246000fd5b6000600019821415612b7d57612b7d612b98565b5060010190565b600082612b9357612b93612bae565b500690565b634e487b7160e01b600052601160045260246000fd5b634e487b7160e01b600052601260045260246000fd5b634e487b7160e01b600052603160045260246000fd5b634e487b7160e01b600052603260045260246000fd5b634e487b7160e01b600052604160045260246000fd5b8015158114610e1057600080fd5b6001600160e01b031981168114610e1057600080fdfea164736f6c6343000807000a",
  "linkReferences": {},
  "deployedLinkReferences": {}
}