{
  "_format": "hh-sol-artifact-1",
  "contractName": "CredmarkAccessKey",
  "sourceName": "contracts/CredmarkAccessKey.sol",
  "abi": [
    {
      "inputs": [],
      "stateMutability": "nonpayable",
      "type": "constructor"
    },
    {
      "anonymous": false,
      "inputs": [
        {
          "indexed": false,
          "internalType": "address",
          "name": "previousAdmin",
          "type": "address"
        },
        {
          "indexed": false,
          "internalType": "address",
          "name": "newAdmin",
          "type": "address"
        }
      ],
      "name": "AdminChanged",
      "type": "event"
    },
    {
      "anonymous": false,
      "inputs": [
        {
          "indexed": true,
          "internalType": "address",
          "name": "owner",
          "type": "address"
        },
        {
          "indexed": true,
          "internalType": "address",
          "name": "approved",
          "type": "address"
        },
        {
          "indexed": true,
          "internalType": "uint256",
          "name": "tokenId",
          "type": "uint256"
        }
      ],
      "name": "Approval",
      "type": "event"
    },
    {
      "anonymous": false,
      "inputs": [
        {
          "indexed": true,
          "internalType": "address",
          "name": "owner",
          "type": "address"
        },
        {
          "indexed": true,
          "internalType": "address",
          "name": "operator",
          "type": "address"
        },
        {
          "indexed": false,
          "internalType": "bool",
          "name": "approved",
          "type": "bool"
        }
      ],
      "name": "ApprovalForAll",
      "type": "event"
    },
    {
      "anonymous": false,
      "inputs": [
        {
          "indexed": true,
          "internalType": "address",
          "name": "beacon",
          "type": "address"
        }
      ],
      "name": "BeaconUpgraded",
      "type": "event"
    },
    {
      "anonymous": false,
      "inputs": [
        {
          "indexed": false,
          "internalType": "uint8",
          "name": "version",
          "type": "uint8"
        }
      ],
      "name": "Initialized",
      "type": "event"
    },
    {
      "anonymous": false,
      "inputs": [
        {
          "indexed": false,
          "internalType": "uint256",
          "name": "tokenId",
          "type": "uint256"
        }
      ],
      "name": "NFTBurned",
      "type": "event"
    },
    {
      "anonymous": false,
      "inputs": [
        {
          "indexed": false,
          "internalType": "uint256",
          "name": "tokenId",
          "type": "uint256"
        }
      ],
      "name": "NFTMinted",
      "type": "event"
    },
    {
      "anonymous": false,
      "inputs": [
        {
          "indexed": false,
          "internalType": "address",
          "name": "account",
          "type": "address"
        }
      ],
      "name": "Paused",
      "type": "event"
    },
    {
      "anonymous": false,
      "inputs": [
        {
          "indexed": true,
          "internalType": "bytes32",
          "name": "role",
          "type": "bytes32"
        },
        {
          "indexed": true,
          "internalType": "bytes32",
          "name": "previousAdminRole",
          "type": "bytes32"
        },
        {
          "indexed": true,
          "internalType": "bytes32",
          "name": "newAdminRole",
          "type": "bytes32"
        }
      ],
      "name": "RoleAdminChanged",
      "type": "event"
    },
    {
      "anonymous": false,
      "inputs": [
        {
          "indexed": true,
          "internalType": "bytes32",
          "name": "role",
          "type": "bytes32"
        },
        {
          "indexed": true,
          "internalType": "address",
          "name": "account",
          "type": "address"
        },
        {
          "indexed": true,
          "internalType": "address",
          "name": "sender",
          "type": "address"
        }
      ],
      "name": "RoleGranted",
      "type": "event"
    },
    {
      "anonymous": false,
      "inputs": [
        {
          "indexed": true,
          "internalType": "bytes32",
          "name": "role",
          "type": "bytes32"
        },
        {
          "indexed": true,
          "internalType": "address",
          "name": "account",
          "type": "address"
        },
        {
          "indexed": true,
          "internalType": "address",
          "name": "sender",
          "type": "address"
        }
      ],
      "name": "RoleRevoked",
      "type": "event"
    },
    {
      "anonymous": false,
      "inputs": [
        {
          "indexed": true,
          "internalType": "address",
          "name": "from",
          "type": "address"
        },
        {
          "indexed": true,
          "internalType": "address",
          "name": "to",
          "type": "address"
        },
        {
          "indexed": true,
          "internalType": "uint256",
          "name": "tokenId",
          "type": "uint256"
        }
      ],
      "name": "Transfer",
      "type": "event"
    },
    {
      "anonymous": false,
      "inputs": [
        {
          "indexed": false,
          "internalType": "address",
          "name": "account",
          "type": "address"
        }
      ],
      "name": "Unpaused",
      "type": "event"
    },
    {
      "anonymous": false,
      "inputs": [
        {
          "indexed": true,
          "internalType": "address",
          "name": "implementation",
          "type": "address"
        }
      ],
      "name": "Upgraded",
      "type": "event"
    },
    {
      "inputs": [],
      "name": "BURNER_ROLE",
      "outputs": [
        {
          "internalType": "bytes32",
          "name": "",
          "type": "bytes32"
        }
      ],
      "stateMutability": "view",
      "type": "function"
    },
    {
      "inputs": [],
      "name": "DEFAULT_ADMIN_ROLE",
      "outputs": [
        {
          "internalType": "bytes32",
          "name": "",
          "type": "bytes32"
        }
      ],
      "stateMutability": "view",
      "type": "function"
    },
    {
      "inputs": [],
      "name": "MINTER_ROLE",
      "outputs": [
        {
          "internalType": "bytes32",
          "name": "",
          "type": "bytes32"
        }
      ],
      "stateMutability": "view",
      "type": "function"
    },
    {
      "inputs": [],
      "name": "PAUSER_ROLE",
      "outputs": [
        {
          "internalType": "bytes32",
          "name": "",
          "type": "bytes32"
        }
      ],
      "stateMutability": "view",
      "type": "function"
    },
    {
      "inputs": [],
      "name": "UPGRADER_ROLE",
      "outputs": [
        {
          "internalType": "bytes32",
          "name": "",
          "type": "bytes32"
        }
      ],
      "stateMutability": "view",
      "type": "function"
    },
    {
      "inputs": [
        {
          "internalType": "address",
          "name": "to",
          "type": "address"
        },
        {
          "internalType": "uint256",
          "name": "tokenId",
          "type": "uint256"
        }
      ],
      "name": "approve",
      "outputs": [],
      "stateMutability": "nonpayable",
      "type": "function"
    },
    {
      "inputs": [
        {
          "internalType": "address",
          "name": "owner",
          "type": "address"
        }
      ],
      "name": "balanceOf",
      "outputs": [
        {
          "internalType": "uint256",
          "name": "",
          "type": "uint256"
        }
      ],
      "stateMutability": "view",
      "type": "function"
    },
    {
      "inputs": [
        {
          "internalType": "uint256",
          "name": "tokenId",
          "type": "uint256"
        }
      ],
      "name": "burn",
      "outputs": [],
      "stateMutability": "nonpayable",
      "type": "function"
    },
    {
      "inputs": [
        {
          "internalType": "uint256",
          "name": "tokenId",
          "type": "uint256"
        }
      ],
      "name": "exists",
      "outputs": [
        {
          "internalType": "bool",
          "name": "",
          "type": "bool"
        }
      ],
      "stateMutability": "view",
      "type": "function"
    },
    {
      "inputs": [
        {
          "internalType": "uint256",
          "name": "tokenId",
          "type": "uint256"
        }
      ],
      "name": "getApproved",
      "outputs": [
        {
          "internalType": "address",
          "name": "",
          "type": "address"
        }
      ],
      "stateMutability": "view",
      "type": "function"
    },
    {
      "inputs": [
        {
          "internalType": "bytes32",
          "name": "role",
          "type": "bytes32"
        }
      ],
      "name": "getRoleAdmin",
      "outputs": [
        {
          "internalType": "bytes32",
          "name": "",
          "type": "bytes32"
        }
      ],
      "stateMutability": "view",
      "type": "function"
    },
    {
      "inputs": [
        {
          "internalType": "bytes32",
          "name": "role",
          "type": "bytes32"
        },
        {
          "internalType": "address",
          "name": "account",
          "type": "address"
        }
      ],
      "name": "grantRole",
      "outputs": [],
      "stateMutability": "nonpayable",
      "type": "function"
    },
    {
      "inputs": [
        {
          "internalType": "bytes32",
          "name": "role",
          "type": "bytes32"
        },
        {
          "internalType": "address",
          "name": "account",
          "type": "address"
        }
      ],
      "name": "hasRole",
      "outputs": [
        {
          "internalType": "bool",
          "name": "",
          "type": "bool"
        }
      ],
      "stateMutability": "view",
      "type": "function"
    },
    {
      "inputs": [],
      "name": "initialize",
      "outputs": [],
      "stateMutability": "nonpayable",
      "type": "function"
    },
    {
      "inputs": [
        {
          "internalType": "address",
          "name": "owner",
          "type": "address"
        },
        {
          "internalType": "address",
          "name": "operator",
          "type": "address"
        }
      ],
      "name": "isApprovedForAll",
      "outputs": [
        {
          "internalType": "bool",
          "name": "",
          "type": "bool"
        }
      ],
      "stateMutability": "view",
      "type": "function"
    },
    {
      "inputs": [
        {
          "internalType": "address",
          "name": "spender",
          "type": "address"
        },
        {
          "internalType": "uint256",
          "name": "tokenId",
          "type": "uint256"
        }
      ],
      "name": "isApprovedOrOwner",
      "outputs": [
        {
          "internalType": "bool",
          "name": "",
          "type": "bool"
        }
      ],
      "stateMutability": "view",
      "type": "function"
    },
    {
      "inputs": [],
      "name": "name",
      "outputs": [
        {
          "internalType": "string",
          "name": "",
          "type": "string"
        }
      ],
      "stateMutability": "view",
      "type": "function"
    },
    {
      "inputs": [
        {
          "internalType": "uint256",
          "name": "tokenId",
          "type": "uint256"
        }
      ],
      "name": "ownerOf",
      "outputs": [
        {
          "internalType": "address",
          "name": "",
          "type": "address"
        }
      ],
      "stateMutability": "view",
      "type": "function"
    },
    {
      "inputs": [],
      "name": "pause",
      "outputs": [],
      "stateMutability": "nonpayable",
      "type": "function"
    },
    {
      "inputs": [],
      "name": "paused",
      "outputs": [
        {
          "internalType": "bool",
          "name": "",
          "type": "bool"
        }
      ],
      "stateMutability": "view",
      "type": "function"
    },
    {
      "inputs": [],
      "name": "proxiableUUID",
      "outputs": [
        {
          "internalType": "bytes32",
          "name": "",
          "type": "bytes32"
        }
      ],
      "stateMutability": "view",
      "type": "function"
    },
    {
      "inputs": [
        {
          "internalType": "bytes32",
          "name": "role",
          "type": "bytes32"
        },
        {
          "internalType": "address",
          "name": "account",
          "type": "address"
        }
      ],
      "name": "renounceRole",
      "outputs": [],
      "stateMutability": "nonpayable",
      "type": "function"
    },
    {
      "inputs": [
        {
          "internalType": "bytes32",
          "name": "role",
          "type": "bytes32"
        },
        {
          "internalType": "address",
          "name": "account",
          "type": "address"
        }
      ],
      "name": "revokeRole",
      "outputs": [],
      "stateMutability": "nonpayable",
      "type": "function"
    },
    {
      "inputs": [
        {
          "internalType": "address",
          "name": "to",
          "type": "address"
        }
      ],
      "name": "safeMint",
      "outputs": [
        {
          "internalType": "uint256",
          "name": "tokenId",
          "type": "uint256"
        }
      ],
      "stateMutability": "nonpayable",
      "type": "function"
    },
    {
      "inputs": [
        {
          "internalType": "address",
          "name": "from",
          "type": "address"
        },
        {
          "internalType": "address",
          "name": "to",
          "type": "address"
        },
        {
          "internalType": "uint256",
          "name": "tokenId",
          "type": "uint256"
        }
      ],
      "name": "safeTransferFrom",
      "outputs": [],
      "stateMutability": "nonpayable",
      "type": "function"
    },
    {
      "inputs": [
        {
          "internalType": "address",
          "name": "from",
          "type": "address"
        },
        {
          "internalType": "address",
          "name": "to",
          "type": "address"
        },
        {
          "internalType": "uint256",
          "name": "tokenId",
          "type": "uint256"
        },
        {
          "internalType": "bytes",
          "name": "_data",
          "type": "bytes"
        }
      ],
      "name": "safeTransferFrom",
      "outputs": [],
      "stateMutability": "nonpayable",
      "type": "function"
    },
    {
      "inputs": [
        {
          "internalType": "address",
          "name": "operator",
          "type": "address"
        },
        {
          "internalType": "bool",
          "name": "approved",
          "type": "bool"
        }
      ],
      "name": "setApprovalForAll",
      "outputs": [],
      "stateMutability": "nonpayable",
      "type": "function"
    },
    {
      "inputs": [
        {
          "internalType": "bytes4",
          "name": "interfaceId",
          "type": "bytes4"
        }
      ],
      "name": "supportsInterface",
      "outputs": [
        {
          "internalType": "bool",
          "name": "",
          "type": "bool"
        }
      ],
      "stateMutability": "view",
      "type": "function"
    },
    {
      "inputs": [],
      "name": "symbol",
      "outputs": [
        {
          "internalType": "string",
          "name": "",
          "type": "string"
        }
      ],
      "stateMutability": "view",
      "type": "function"
    },
    {
      "inputs": [
        {
          "internalType": "uint256",
          "name": "index",
          "type": "uint256"
        }
      ],
      "name": "tokenByIndex",
      "outputs": [
        {
          "internalType": "uint256",
          "name": "",
          "type": "uint256"
        }
      ],
      "stateMutability": "view",
      "type": "function"
    },
    {
      "inputs": [
        {
          "internalType": "address",
          "name": "owner",
          "type": "address"
        },
        {
          "internalType": "uint256",
          "name": "index",
          "type": "uint256"
        }
      ],
      "name": "tokenOfOwnerByIndex",
      "outputs": [
        {
          "internalType": "uint256",
          "name": "",
          "type": "uint256"
        }
      ],
      "stateMutability": "view",
      "type": "function"
    },
    {
      "inputs": [
        {
          "internalType": "uint256",
          "name": "tokenId",
          "type": "uint256"
        }
      ],
      "name": "tokenURI",
      "outputs": [
        {
          "internalType": "string",
          "name": "",
          "type": "string"
        }
      ],
      "stateMutability": "view",
      "type": "function"
    },
    {
      "inputs": [],
      "name": "totalSupply",
      "outputs": [
        {
          "internalType": "uint256",
          "name": "",
          "type": "uint256"
        }
      ],
      "stateMutability": "view",
      "type": "function"
    },
    {
      "inputs": [
        {
          "internalType": "address",
          "name": "from",
          "type": "address"
        },
        {
          "internalType": "address",
          "name": "to",
          "type": "address"
        },
        {
          "internalType": "uint256",
          "name": "tokenId",
          "type": "uint256"
        }
      ],
      "name": "transferFrom",
      "outputs": [],
      "stateMutability": "nonpayable",
      "type": "function"
    },
    {
      "inputs": [],
      "name": "unpause",
      "outputs": [],
      "stateMutability": "nonpayable",
      "type": "function"
    },
    {
      "inputs": [
        {
          "internalType": "address",
          "name": "newImplementation",
          "type": "address"
        }
      ],
      "name": "upgradeTo",
      "outputs": [],
      "stateMutability": "nonpayable",
      "type": "function"
    },
    {
      "inputs": [
        {
          "internalType": "address",
          "name": "newImplementation",
          "type": "address"
        },
        {
          "internalType": "bytes",
          "name": "data",
          "type": "bytes"
        }
      ],
      "name": "upgradeToAndCall",
      "outputs": [],
      "stateMutability": "payable",
      "type": "function"
    }
  ],
  "bytecode": "0x60a06040523060601b6080523480156200001857600080fd5b506200002362000029565b62000159565b6200003560ff62000038565b50565b60008054610100900460ff1615620000d1578160ff1660011480156200007157506200006f306200014a60201b620016511760201c565b155b620000c95760405162461bcd60e51b815260206004820152602e60248201526000805160206200372383398151915260448201526d191e481a5b9a5d1a585b1a5e995960921b60648201526084015b60405180910390fd5b506000919050565b60005460ff808416911610620001305760405162461bcd60e51b815260206004820152602e60248201526000805160206200372383398151915260448201526d191e481a5b9a5d1a585b1a5e995960921b6064820152608401620000c0565b506000805460ff191660ff92909216919091179055600190565b6001600160a01b03163b151590565b60805160601c61358f6200019460003960008181610bd501528181610c5a01528181610e9f01528181610f2401526110cd015261358f6000f3fe60806040526004361061026a5760003560e01c80634f558e791161015357806395d89b41116100cb578063d53913931161007f578063e63ab1e911610064578063e63ab1e9146106e6578063e985e9c51461071a578063f72c0d8b1461076357600080fd5b8063d539139314610692578063d547741f146106c657600080fd5b8063a22cb465116100b0578063a22cb46514610632578063b88d4fde14610652578063c87b56dd1461067257600080fd5b806395d89b4114610608578063a217fddf1461061d57600080fd5b80636352211e116101225780638129fc1c116101075780638129fc1c146105985780638456cb59146105ad57806391d14854146105c257600080fd5b80636352211e1461055857806370a082311461057857600080fd5b80634f558e79146104eb5780634f6ccce71461050b57806352d1902d1461052b5780635c975abb1461054057600080fd5b80632f745c59116101e657806340d097c3116101b557806342966c681161019a57806342966c6814610498578063430c2081146104b85780634f1ef286146104d857600080fd5b806340d097c31461045857806342842e0e1461047857600080fd5b80632f745c59146103e357806336568abe146104035780633659cfe6146104235780633f4ba83a1461044357600080fd5b806318160ddd1161023d578063248a9ca311610222578063248a9ca31461035f578063282c51f31461038f5780632f2ff15d146103c357600080fd5b806318160ddd1461032057806323b872dd1461033f57600080fd5b806301ffc9a71461026f57806306fdde03146102a4578063081812fc146102c6578063095ea7b3146102fe575b600080fd5b34801561027b57600080fd5b5061028f61028a366004613247565b610797565b60405190151581526020015b60405180910390f35b3480156102b057600080fd5b506102b96107a8565b60405161029b91906133b5565b3480156102d257600080fd5b506102e66102e13660046131f2565b61083a565b6040516001600160a01b03909116815260200161029b565b34801561030a57600080fd5b5061031e6103193660046131c8565b6108d4565b005b34801561032c57600080fd5b506099545b60405190815260200161029b565b34801561034b57600080fd5b5061031e61035a36600461309a565b6109ea565b34801561036b57600080fd5b5061033161037a3660046131f2565b600090815260fb602052604090206001015490565b34801561039b57600080fd5b506103317f3c11d16cbaffd01df69ce1c404f6340ee057498f5f00246190ea54220576a84881565b3480156103cf57600080fd5b5061031e6103de366004613224565b610a71565b3480156103ef57600080fd5b506103316103fe3660046131c8565b610a96565b34801561040f57600080fd5b5061031e61041e366004613224565b610b3e565b34801561042f57600080fd5b5061031e61043e36600461304c565b610bca565b34801561044f57600080fd5b5061031e610d46565b34801561046457600080fd5b5061033161047336600461304c565b610d78565b34801561048457600080fd5b5061031e61049336600461309a565b610dfc565b3480156104a457600080fd5b5061031e6104b33660046131f2565b610e17565b3480156104c457600080fd5b5061028f6104d33660046131c8565b610e81565b61031e6104e636600461317a565b610e94565b3480156104f757600080fd5b5061028f6105063660046131f2565b610ffd565b34801561051757600080fd5b506103316105263660046131f2565b61101c565b34801561053757600080fd5b506103316110c0565b34801561054c57600080fd5b5060c95460ff1661028f565b34801561056457600080fd5b506102e66105733660046131f2565b611185565b34801561058457600080fd5b5061033161059336600461304c565b611210565b3480156105a457600080fd5b5061031e6112aa565b3480156105b957600080fd5b5061031e61145d565b3480156105ce57600080fd5b5061028f6105dd366004613224565b600091825260fb602090815260408084206001600160a01b0393909316845291905290205460ff1690565b34801561061457600080fd5b506102b961148f565b34801561062957600080fd5b50610331600081565b34801561063e57600080fd5b5061031e61064d36600461313e565b61149e565b34801561065e57600080fd5b5061031e61066d3660046130d6565b6114a9565b34801561067e57600080fd5b506102b961068d3660046131f2565b611537565b34801561069e57600080fd5b506103317f9f2df0fed2c77648de5860a4cc508cd0818c85b8b8a1ab4ceeef8d981c8956a681565b3480156106d257600080fd5b5061031e6106e1366004613224565b61162c565b3480156106f257600080fd5b506103317f65d7a28e3265b37a6474929f336521b332c1681b933f6cb9f3376673440d862a81565b34801561072657600080fd5b5061028f610735366004613067565b6001600160a01b039182166000908152606a6020908152604080832093909416825291909152205460ff1690565b34801561076f57600080fd5b506103317f189ab7a9244df0848122154315af71fe140f3db0fe014031783b0946b8c9d2e381565b60006107a282611660565b92915050565b6060606580546107b79061346d565b80601f01602080910402602001604051908101604052809291908181526020018280546107e39061346d565b80156108305780601f1061080557610100808354040283529160200191610830565b820191906000526020600020905b81548152906001019060200180831161081357829003601f168201915b5050505050905090565b6000818152606760205260408120546001600160a01b03166108b85760405162461bcd60e51b815260206004820152602c60248201527f4552433732313a20617070726f76656420717565727920666f72206e6f6e657860448201526b34b9ba32b73a103a37b5b2b760a11b60648201526084015b60405180910390fd5b506000908152606960205260409020546001600160a01b031690565b60006108df82611185565b9050806001600160a01b0316836001600160a01b0316141561094d5760405162461bcd60e51b815260206004820152602160248201527f4552433732313a20617070726f76616c20746f2063757272656e74206f776e656044820152603960f91b60648201526084016108af565b336001600160a01b038216148061096957506109698133610735565b6109db5760405162461bcd60e51b815260206004820152603860248201527f4552433732313a20617070726f76652063616c6c6572206973206e6f74206f7760448201527f6e6572206e6f7220617070726f76656420666f7220616c6c000000000000000060648201526084016108af565b6109e58383611685565b505050565b6109f433826116f3565b610a665760405162461bcd60e51b815260206004820152603160248201527f4552433732313a207472616e736665722063616c6c6572206973206e6f74206f60448201527f776e6572206e6f7220617070726f76656400000000000000000000000000000060648201526084016108af565b6109e58383836117ea565b600082815260fb6020526040902060010154610a8c816119a9565b6109e583836119b3565b6000610aa183611210565b8210610b155760405162461bcd60e51b815260206004820152602b60248201527f455243373231456e756d657261626c653a206f776e657220696e646578206f7560448201527f74206f6620626f756e647300000000000000000000000000000000000000000060648201526084016108af565b506001600160a01b03919091166000908152609760209081526040808320938352929052205490565b6001600160a01b0381163314610bbc5760405162461bcd60e51b815260206004820152602f60248201527f416363657373436f6e74726f6c3a2063616e206f6e6c792072656e6f756e636560448201527f20726f6c657320666f722073656c66000000000000000000000000000000000060648201526084016108af565b610bc68282611a55565b5050565b306001600160a01b037f0000000000000000000000000000000000000000000000000000000000000000161415610c585760405162461bcd60e51b815260206004820152602c60248201527f46756e6374696f6e206d7573742062652063616c6c6564207468726f7567682060448201526b19195b1959d85d1958d85b1b60a21b60648201526084016108af565b7f00000000000000000000000000000000000000000000000000000000000000006001600160a01b0316610cb37f360894a13ba1a3210667c828492db98dca3e2076cc3735a920a3ca505d382bbc546001600160a01b031690565b6001600160a01b031614610d1e5760405162461bcd60e51b815260206004820152602c60248201527f46756e6374696f6e206d7573742062652063616c6c6564207468726f7567682060448201526b6163746976652070726f787960a01b60648201526084016108af565b610d2781611ad8565b60408051600080825260208201909252610d4391839190611b02565b50565b7f65d7a28e3265b37a6474929f336521b332c1681b933f6cb9f3376673440d862a610d70816119a9565b610d43611cb1565b60007f9f2df0fed2c77648de5860a4cc508cd0818c85b8b8a1ab4ceeef8d981c8956a6610da4816119a9565b610191549150610db961019180546001019055565b610dc38383611d4d565b6040518281527fd9dc24857f317ed9abbbb42e920ede0104231eb1d3d70236a74887ffaf1598689060200160405180910390a150919050565b6109e5838383604051806020016040528060008152506114a9565b7f3c11d16cbaffd01df69ce1c404f6340ee057498f5f00246190ea54220576a848610e41816119a9565b610e4a82611d67565b6040518281527f3c176691ca154a2f6fe978a2a633a33ee77dbe2902e67a75400720845a4b2ce19060200160405180910390a15050565b6000610e8d83836116f3565b9392505050565b306001600160a01b037f0000000000000000000000000000000000000000000000000000000000000000161415610f225760405162461bcd60e51b815260206004820152602c60248201527f46756e6374696f6e206d7573742062652063616c6c6564207468726f7567682060448201526b19195b1959d85d1958d85b1b60a21b60648201526084016108af565b7f00000000000000000000000000000000000000000000000000000000000000006001600160a01b0316610f7d7f360894a13ba1a3210667c828492db98dca3e2076cc3735a920a3ca505d382bbc546001600160a01b031690565b6001600160a01b031614610fe85760405162461bcd60e51b815260206004820152602c60248201527f46756e6374696f6e206d7573742062652063616c6c6564207468726f7567682060448201526b6163746976652070726f787960a01b60648201526084016108af565b610ff182611ad8565b610bc682826001611b02565b6000818152606760205260408120546001600160a01b031615156107a2565b600061102760995490565b821061109b5760405162461bcd60e51b815260206004820152602c60248201527f455243373231456e756d657261626c653a20676c6f62616c20696e646578206f60448201527f7574206f6620626f756e6473000000000000000000000000000000000000000060648201526084016108af565b609982815481106110ae576110ae613519565b90600052602060002001549050919050565b6000306001600160a01b037f000000000000000000000000000000000000000000000000000000000000000016146111605760405162461bcd60e51b815260206004820152603860248201527f555550535570677261646561626c653a206d757374206e6f742062652063616c60448201527f6c6564207468726f7567682064656c656761746563616c6c000000000000000060648201526084016108af565b507f360894a13ba1a3210667c828492db98dca3e2076cc3735a920a3ca505d382bbc90565b6000818152606760205260408120546001600160a01b0316806107a25760405162461bcd60e51b815260206004820152602960248201527f4552433732313a206f776e657220717565727920666f72206e6f6e657869737460448201527f656e7420746f6b656e000000000000000000000000000000000000000000000060648201526084016108af565b60006001600160a01b03821661128e5760405162461bcd60e51b815260206004820152602a60248201527f4552433732313a2062616c616e636520717565727920666f7220746865207a6560448201527f726f20616464726573730000000000000000000000000000000000000000000060648201526084016108af565b506001600160a01b031660009081526068602052604090205490565b60006112b66001611e0e565b905080156112ce576000805461ff0019166101001790555b6113426040518060400160405280601181526020017f437265646d61726b4163636573734b65790000000000000000000000000000008152506040518060400160405280600681526020017f636d6b6b65790000000000000000000000000000000000000000000000000000815250611f29565b61134a611f9e565b61135261200b565b61135a611f9e565b611362611f9e565b61136d6000336119b3565b6113977f189ab7a9244df0848122154315af71fe140f3db0fe014031783b0946b8c9d2e3336119b3565b6113c17f65d7a28e3265b37a6474929f336521b332c1681b933f6cb9f3376673440d862a336119b3565b6113eb7f9f2df0fed2c77648de5860a4cc508cd0818c85b8b8a1ab4ceeef8d981c8956a6336119b3565b6114157f3c11d16cbaffd01df69ce1c404f6340ee057498f5f00246190ea54220576a848336119b3565b8015610d43576000805461ff0019169055604051600181527f7f26b83ff96e1f2b6a682f133852f6798a09c465da95921460cefb38474024989060200160405180910390a150565b7f65d7a28e3265b37a6474929f336521b332c1681b933f6cb9f3376673440d862a611487816119a9565b610d4361207e565b6060606680546107b79061346d565b610bc63383836120f9565b6114b333836116f3565b6115255760405162461bcd60e51b815260206004820152603160248201527f4552433732313a207472616e736665722063616c6c6572206973206e6f74206f60448201527f776e6572206e6f7220617070726f76656400000000000000000000000000000060648201526084016108af565b611531848484846121c8565b50505050565b6000818152606760205260409020546060906001600160a01b03166115c45760405162461bcd60e51b815260206004820152602f60248201527f4552433732314d657461646174613a2055524920717565727920666f72206e6f60448201527f6e6578697374656e7420746f6b656e000000000000000000000000000000000060648201526084016108af565b60006115db60408051602081019091526000815290565b905060008151116115fb5760405180602001604052806000815250610e8d565b8061160584612246565b6040516020016116169291906132c9565b6040516020818303038152906040529392505050565b600082815260fb6020526040902060010154611647816119a9565b6109e58383611a55565b6001600160a01b03163b151590565b60006001600160e01b03198216637965db0b60e01b14806107a257506107a282612344565b600081815260696020526040902080546001600160a01b0319166001600160a01b03841690811790915581906116ba82611185565b6001600160a01b03167f8c5be1e5ebec7d5bd14f71427d1e84f3dd0314c0f7b2291e5b200ac8c7c3b92560405160405180910390a45050565b6000818152606760205260408120546001600160a01b031661176c5760405162461bcd60e51b815260206004820152602c60248201527f4552433732313a206f70657261746f7220717565727920666f72206e6f6e657860448201526b34b9ba32b73a103a37b5b2b760a11b60648201526084016108af565b600061177783611185565b9050806001600160a01b0316846001600160a01b031614806117be57506001600160a01b038082166000908152606a602090815260408083209388168352929052205460ff165b806117e25750836001600160a01b03166117d78461083a565b6001600160a01b0316145b949350505050565b826001600160a01b03166117fd82611185565b6001600160a01b0316146118795760405162461bcd60e51b815260206004820152602560248201527f4552433732313a207472616e736665722066726f6d20696e636f72726563742060448201527f6f776e657200000000000000000000000000000000000000000000000000000060648201526084016108af565b6001600160a01b0382166118db5760405162461bcd60e51b8152602060048201526024808201527f4552433732313a207472616e7366657220746f20746865207a65726f206164646044820152637265737360e01b60648201526084016108af565b6118e6838383612369565b6118f1600082611685565b6001600160a01b038316600090815260686020526040812080546001929061191a908490613413565b90915550506001600160a01b03821660009081526068602052604081208054600192906119489084906133c8565b909155505060008181526067602052604080822080546001600160a01b0319166001600160a01b0386811691821790925591518493918716917fddf252ad1be2c89b69c2b068fc378daa952ba7f163c4a11628f55a4df523b3ef91a4505050565b610d4381336123ba565b600082815260fb602090815260408083206001600160a01b038516845290915290205460ff16610bc657600082815260fb602090815260408083206001600160a01b03851684529091529020805460ff19166001179055611a113390565b6001600160a01b0316816001600160a01b0316837f2f8788117e7eff1d82e926ec794901d17c78024a50270940304540a733656f0d60405160405180910390a45050565b600082815260fb602090815260408083206001600160a01b038516845290915290205460ff1615610bc657600082815260fb602090815260408083206001600160a01b0385168085529252808320805460ff1916905551339285917ff6391f5c32d9c69d2a47ea670b442974b53935d1edc7fd64eb21e047a839171b9190a45050565b7f189ab7a9244df0848122154315af71fe140f3db0fe014031783b0946b8c9d2e3610bc6816119a9565b7f4910fdfa16fed3260ed0e7147f7cc6da11a60208b5b9406d12a635614ffd91435460ff1615611b35576109e58361243a565b826001600160a01b03166352d1902d6040518163ffffffff1660e01b815260040160206040518083038186803b158015611b6e57600080fd5b505afa925050508015611b9e575060408051601f3d908101601f19168201909252611b9b9181019061320b565b60015b611c105760405162461bcd60e51b815260206004820152602e60248201527f45524331393637557067726164653a206e657720696d706c656d656e7461746960448201527f6f6e206973206e6f74205555505300000000000000000000000000000000000060648201526084016108af565b7f360894a13ba1a3210667c828492db98dca3e2076cc3735a920a3ca505d382bbc8114611ca55760405162461bcd60e51b815260206004820152602960248201527f45524331393637557067726164653a20756e737570706f727465642070726f7860448201527f6961626c6555554944000000000000000000000000000000000000000000000060648201526084016108af565b506109e58383836124f8565b60c95460ff16611d035760405162461bcd60e51b815260206004820152601460248201527f5061757361626c653a206e6f742070617573656400000000000000000000000060448201526064016108af565b60c9805460ff191690557f5db9ee0a495bf2e6ff9c91a7834c1ba4fdd244a5e8aa4e537bd38aeae4b073aa335b6040516001600160a01b03909116815260200160405180910390a1565b610bc682826040518060200160405280600081525061251d565b6000611d7282611185565b9050611d8081600084612369565b611d8b600083611685565b6001600160a01b0381166000908152606860205260408120805460019290611db4908490613413565b909155505060008281526067602052604080822080546001600160a01b0319169055518391906001600160a01b038416907fddf252ad1be2c89b69c2b068fc378daa952ba7f163c4a11628f55a4df523b3ef908390a45050565b60008054610100900460ff1615611e9c578160ff166001148015611e315750303b155b611e945760405162461bcd60e51b815260206004820152602e60248201527f496e697469616c697a61626c653a20636f6e747261637420697320616c72656160448201526d191e481a5b9a5d1a585b1a5e995960921b60648201526084016108af565b506000919050565b60005460ff808416911610611f0a5760405162461bcd60e51b815260206004820152602e60248201527f496e697469616c697a61626c653a20636f6e747261637420697320616c72656160448201526d191e481a5b9a5d1a585b1a5e995960921b60648201526084016108af565b506000805460ff191660ff92909216919091179055600190565b919050565b600054610100900460ff16611f945760405162461bcd60e51b815260206004820152602b60248201527f496e697469616c697a61626c653a20636f6e7472616374206973206e6f74206960448201526a6e697469616c697a696e6760a81b60648201526084016108af565b610bc6828261259b565b600054610100900460ff166120095760405162461bcd60e51b815260206004820152602b60248201527f496e697469616c697a61626c653a20636f6e7472616374206973206e6f74206960448201526a6e697469616c697a696e6760a81b60648201526084016108af565b565b600054610100900460ff166120765760405162461bcd60e51b815260206004820152602b60248201527f496e697469616c697a61626c653a20636f6e7472616374206973206e6f74206960448201526a6e697469616c697a696e6760a81b60648201526084016108af565b61200961262d565b60c95460ff16156120c45760405162461bcd60e51b815260206004820152601060248201526f14185d5cd8589b194e881c185d5cd95960821b60448201526064016108af565b60c9805460ff191660011790557f62e78cea01bee320cd4e420270b5ea74000d11b0c9f74754ebdbfc544b05a258611d303390565b816001600160a01b0316836001600160a01b0316141561215b5760405162461bcd60e51b815260206004820152601960248201527f4552433732313a20617070726f766520746f2063616c6c65720000000000000060448201526064016108af565b6001600160a01b038381166000818152606a6020908152604080832094871680845294825291829020805460ff191686151590811790915591519182527f17307eab39ab6107e8899845ad3d59bd9653f200f220920489ca2b5937696c31910160405180910390a3505050565b6121d38484846117ea565b6121df848484846126a4565b6115315760405162461bcd60e51b815260206004820152603260248201527f4552433732313a207472616e7366657220746f206e6f6e20455243373231526560448201527131b2b4bb32b91034b6b83632b6b2b73a32b960711b60648201526084016108af565b60608161226a5750506040805180820190915260018152600360fc1b602082015290565b8160005b8115612294578061227e816134a8565b915061228d9050600a836133e0565b915061226e565b60008167ffffffffffffffff8111156122af576122af61352f565b6040519080825280601f01601f1916602001820160405280156122d9576020820181803683370190505b5090505b84156117e2576122ee600183613413565b91506122fb600a866134c3565b6123069060306133c8565b60f81b81838151811061231b5761231b613519565b60200101906001600160f81b031916908160001a90535061233d600a866133e0565b94506122dd565b60006001600160e01b0319821663780e9d6360e01b14806107a257506107a2826127fc565b60c95460ff16156123af5760405162461bcd60e51b815260206004820152601060248201526f14185d5cd8589b194e881c185d5cd95960821b60448201526064016108af565b6109e583838361284c565b600082815260fb602090815260408083206001600160a01b038516845290915290205460ff16610bc6576123f8816001600160a01b03166014612904565b612403836020612904565b6040516020016124149291906132f8565b60408051601f198184030181529082905262461bcd60e51b82526108af916004016133b5565b6001600160a01b0381163b6124b75760405162461bcd60e51b815260206004820152602d60248201527f455243313936373a206e657720696d706c656d656e746174696f6e206973206e60448201527f6f74206120636f6e74726163740000000000000000000000000000000000000060648201526084016108af565b7f360894a13ba1a3210667c828492db98dca3e2076cc3735a920a3ca505d382bbc80546001600160a01b0319166001600160a01b0392909216919091179055565b61250183612aad565b60008251118061250e5750805b156109e5576115318383612aed565b6125278383612bf8565b61253460008484846126a4565b6109e55760405162461bcd60e51b815260206004820152603260248201527f4552433732313a207472616e7366657220746f206e6f6e20455243373231526560448201527131b2b4bb32b91034b6b83632b6b2b73a32b960711b60648201526084016108af565b600054610100900460ff166126065760405162461bcd60e51b815260206004820152602b60248201527f496e697469616c697a61626c653a20636f6e7472616374206973206e6f74206960448201526a6e697469616c697a696e6760a81b60648201526084016108af565b8151612619906065906020850190612f0f565b5080516109e5906066906020840190612f0f565b600054610100900460ff166126985760405162461bcd60e51b815260206004820152602b60248201527f496e697469616c697a61626c653a20636f6e7472616374206973206e6f74206960448201526a6e697469616c697a696e6760a81b60648201526084016108af565b60c9805460ff19169055565b60006001600160a01b0384163b156127f157604051630a85bd0160e11b81526001600160a01b0385169063150b7a02906126e8903390899088908890600401613379565b602060405180830381600087803b15801561270257600080fd5b505af1925050508015612732575060408051601f3d908101601f1916820190925261272f91810190613264565b60015b6127d7573d808015612760576040519150601f19603f3d011682016040523d82523d6000602084013e612765565b606091505b5080516127cf5760405162461bcd60e51b815260206004820152603260248201527f4552433732313a207472616e7366657220746f206e6f6e20455243373231526560448201527131b2b4bb32b91034b6b83632b6b2b73a32b960711b60648201526084016108af565b805181602001fd5b6001600160e01b031916630a85bd0160e11b1490506117e2565b506001949350505050565b60006001600160e01b031982166380ac58cd60e01b148061282d57506001600160e01b03198216635b5e139f60e01b145b806107a257506301ffc9a760e01b6001600160e01b03198316146107a2565b6001600160a01b0383166128a7576128a281609980546000838152609a60205260408120829055600182018355919091527f72a152ddfb8e864297c917af52ea6c1c68aead0fee1a62673fcc7e0c94979d000155565b6128ca565b816001600160a01b0316836001600160a01b0316146128ca576128ca8382612d46565b6001600160a01b0382166128e1576109e581612de3565b826001600160a01b0316826001600160a01b0316146109e5576109e58282612e92565b606060006129138360026133f4565b61291e9060026133c8565b67ffffffffffffffff8111156129365761293661352f565b6040519080825280601f01601f191660200182016040528015612960576020820181803683370190505b509050600360fc1b8160008151811061297b5761297b613519565b60200101906001600160f81b031916908160001a905350600f60fb1b816001815181106129aa576129aa613519565b60200101906001600160f81b031916908160001a90535060006129ce8460026133f4565b6129d99060016133c8565b90505b6001811115612a5e577f303132333435363738396162636465660000000000000000000000000000000085600f1660108110612a1a57612a1a613519565b1a60f81b828281518110612a3057612a30613519565b60200101906001600160f81b031916908160001a90535060049490941c93612a5781613456565b90506129dc565b508315610e8d5760405162461bcd60e51b815260206004820181905260248201527f537472696e67733a20686578206c656e67746820696e73756666696369656e7460448201526064016108af565b612ab68161243a565b6040516001600160a01b038216907fbc7cd75a20ee27fd9adebab32041f755214dbc6bffa90cc0225b39da2e5c2d3b90600090a250565b60606001600160a01b0383163b612b6c5760405162461bcd60e51b815260206004820152602660248201527f416464726573733a2064656c65676174652063616c6c20746f206e6f6e2d636f60448201527f6e7472616374000000000000000000000000000000000000000000000000000060648201526084016108af565b600080846001600160a01b031684604051612b8791906132ad565b600060405180830381855af49150503d8060008114612bc2576040519150601f19603f3d011682016040523d82523d6000602084013e612bc7565b606091505b5091509150612bef828260405180606001604052806027815260200161355c60279139612ed6565b95945050505050565b6001600160a01b038216612c4e5760405162461bcd60e51b815260206004820181905260248201527f4552433732313a206d696e7420746f20746865207a65726f206164647265737360448201526064016108af565b6000818152606760205260409020546001600160a01b031615612cb35760405162461bcd60e51b815260206004820152601c60248201527f4552433732313a20746f6b656e20616c7265616479206d696e7465640000000060448201526064016108af565b612cbf60008383612369565b6001600160a01b0382166000908152606860205260408120805460019290612ce89084906133c8565b909155505060008181526067602052604080822080546001600160a01b0319166001600160a01b03861690811790915590518392907fddf252ad1be2c89b69c2b068fc378daa952ba7f163c4a11628f55a4df523b3ef908290a45050565b60006001612d5384611210565b612d5d9190613413565b600083815260986020526040902054909150808214612db0576001600160a01b03841660009081526097602090815260408083208584528252808320548484528184208190558352609890915290208190555b5060009182526098602090815260408084208490556001600160a01b039094168352609781528383209183525290812055565b609954600090612df590600190613413565b6000838152609a602052604081205460998054939450909284908110612e1d57612e1d613519565b906000526020600020015490508060998381548110612e3e57612e3e613519565b6000918252602080832090910192909255828152609a90915260408082208490558582528120556099805480612e7657612e76613503565b6001900381819060005260206000200160009055905550505050565b6000612e9d83611210565b6001600160a01b039093166000908152609760209081526040808320868452825280832085905593825260989052919091209190915550565b60608315612ee5575081610e8d565b825115612ef55782518084602001fd5b8160405162461bcd60e51b81526004016108af91906133b5565b828054612f1b9061346d565b90600052602060002090601f016020900481019282612f3d5760008555612f83565b82601f10612f5657805160ff1916838001178555612f83565b82800160010185558215612f83579182015b82811115612f83578251825591602001919060010190612f68565b50612f8f929150612f93565b5090565b5b80821115612f8f5760008155600101612f94565b80356001600160a01b0381168114611f2457600080fd5b600082601f830112612fd057600080fd5b813567ffffffffffffffff80821115612feb57612feb61352f565b604051601f8301601f19908116603f011681019082821181831017156130135761301361352f565b8160405283815286602085880101111561302c57600080fd5b836020870160208301376000602085830101528094505050505092915050565b60006020828403121561305e57600080fd5b610e8d82612fa8565b6000806040838503121561307a57600080fd5b61308383612fa8565b915061309160208401612fa8565b90509250929050565b6000806000606084860312156130af57600080fd5b6130b884612fa8565b92506130c660208501612fa8565b9150604084013590509250925092565b600080600080608085870312156130ec57600080fd5b6130f585612fa8565b935061310360208601612fa8565b925060408501359150606085013567ffffffffffffffff81111561312657600080fd5b61313287828801612fbf565b91505092959194509250565b6000806040838503121561315157600080fd5b61315a83612fa8565b91506020830135801515811461316f57600080fd5b809150509250929050565b6000806040838503121561318d57600080fd5b61319683612fa8565b9150602083013567ffffffffffffffff8111156131b257600080fd5b6131be85828601612fbf565b9150509250929050565b600080604083850312156131db57600080fd5b6131e483612fa8565b946020939093013593505050565b60006020828403121561320457600080fd5b5035919050565b60006020828403121561321d57600080fd5b5051919050565b6000806040838503121561323757600080fd5b8235915061309160208401612fa8565b60006020828403121561325957600080fd5b8135610e8d81613545565b60006020828403121561327657600080fd5b8151610e8d81613545565b6000815180845261329981602086016020860161342a565b601f01601f19169290920160200192915050565b600082516132bf81846020870161342a565b9190910192915050565b600083516132db81846020880161342a565b8351908301906132ef81836020880161342a565b01949350505050565b7f416363657373436f6e74726f6c3a206163636f756e742000000000000000000081526000835161333081601785016020880161342a565b7f206973206d697373696e6720726f6c6520000000000000000000000000000000601791840191820152835161336d81602884016020880161342a565b01602801949350505050565b60006001600160a01b038087168352808616602084015250836040830152608060608301526133ab6080830184613281565b9695505050505050565b602081526000610e8d6020830184613281565b600082198211156133db576133db6134d7565b500190565b6000826133ef576133ef6134ed565b500490565b600081600019048311821515161561340e5761340e6134d7565b500290565b600082821015613425576134256134d7565b500390565b60005b8381101561344557818101518382015260200161342d565b838111156115315750506000910152565b600081613465576134656134d7565b506000190190565b600181811c9082168061348157607f821691505b602082108114156134a257634e487b7160e01b600052602260045260246000fd5b50919050565b60006000198214156134bc576134bc6134d7565b5060010190565b6000826134d2576134d26134ed565b500690565b634e487b7160e01b600052601160045260246000fd5b634e487b7160e01b600052601260045260246000fd5b634e487b7160e01b600052603160045260246000fd5b634e487b7160e01b600052603260045260246000fd5b634e487b7160e01b600052604160045260246000fd5b6001600160e01b031981168114610d4357600080fdfe416464726573733a206c6f772d6c6576656c2064656c65676174652063616c6c206661696c6564a164736f6c6343000807000a496e697469616c697a61626c653a20636f6e747261637420697320616c726561",
  "linkReferences": {},
  "deployedLinkReferences": {}
}