{
  "_format": "hh-sol-artifact-1",
  "contractName": "CredmarkAccessProvider",
  "sourceName": "contracts/consumer/CredmarkAccessProvider.sol",
  "abi": [
    {
      "inputs": [
        {
          "internalType": "contract CredmarkAccessKey",
          "name": "_dataAccess",
          "type": "address"
        }
      ],
      "stateMutability": "nonpayable",
      "type": "constructor"
    },
    {
      "inputs": [
        {
          "internalType": "address",
          "name": "authenticatedAddress",
          "type": "address"
        },
        {
          "internalType": "uint256",
          "name": "tokenId",
          "type": "uint256"
        }
      ],
      "name": "authorize",
      "outputs": [
        {
          "internalType": "bool",
          "name": "authorized",
          "type": "bool"
        }
      ],
      "stateMutability": "view",
      "type": "function"
    },
    {
      "inputs": [],
      "name": "dataAccess",
      "outputs": [
        {
          "internalType": "contract CredmarkAccessKey",
          "name": "",
          "type": "address"
        }
      ],
      "stateMutability": "view",
      "type": "function"
    }
  ],
  "bytecode": "0x608060405234801561001057600080fd5b5060405161034138038061034183398101604081905261002f91610054565b600080546001600160a01b0319166001600160a01b0392909216919091179055610084565b60006020828403121561006657600080fd5b81516001600160a01b038116811461007d57600080fd5b9392505050565b6102ae806100936000396000f3fe608060405234801561001057600080fd5b50600436106100365760003560e01c8063c1dbd9b21461003b578063ce5a406514610063575b600080fd5b61004e610049366004610244565b61008e565b60405190151581526020015b60405180910390f35b600054610076906001600160a01b031681565b6040516001600160a01b03909116815260200161005a565b600080546040516331a9108f60e11b8152600481018490526001600160a01b0390911690636352211e9060240160206040518083038186803b1580156100d357600080fd5b505afa1580156100e7573d6000803e3d6000fd5b505050506040513d601f19601f8201168201806040525081019061010b9190610227565b6001600160a01b0316836001600160a01b03161480156102205750600054604051635a5fd90160e11b8152600481018490526001600160a01b039091169063b4bfb2029060240160206040518083038186803b15801561016a57600080fd5b505afa15801561017e573d6000803e3d6000fd5b505050506040513d601f19601f820116820180604052508101906101a29190610270565b600054604051630365b8e760e11b8152600481018590526001600160a01b03909116906306cb71ce9060240160206040518083038186803b1580156101e657600080fd5b505afa1580156101fa573d6000803e3d6000fd5b505050506040513d601f19601f8201168201806040525081019061021e9190610270565b105b9392505050565b60006020828403121561023957600080fd5b815161022081610289565b6000806040838503121561025757600080fd5b823561026281610289565b946020939093013593505050565b60006020828403121561028257600080fd5b5051919050565b6001600160a01b038116811461029e57600080fd5b5056fea164736f6c6343000807000a",
  "linkReferences": {},
  "deployedLinkReferences": {}
}