{
  "_format": "hh-sol-artifact-1",
  "contractName": "RewardsPool",
  "sourceName": "contracts/base/RewardsPool.sol",
  "abi": [
    {
      "inputs": [
        {
          "internalType": "contract IERC20",
          "name": "_credmark",
          "type": "address"
        },
        {
          "internalType": "contract IERC20",
          "name": "_stakedCredmark",
          "type": "address"
        }
      ],
      "stateMutability": "nonpayable",
      "type": "constructor"
    },
    {
      "anonymous": false,
      "inputs": [
        {
          "indexed": true,
          "internalType": "address",
          "name": "previousOwner",
          "type": "address"
        },
        {
          "indexed": true,
          "internalType": "address",
          "name": "newOwner",
          "type": "address"
        }
      ],
      "name": "OwnershipTransferred",
      "type": "event"
    },
    {
      "anonymous": false,
      "inputs": [
        {
          "indexed": false,
          "internalType": "uint256",
          "name": "amount",
          "type": "uint256"
        }
      ],
      "name": "RewardsIssued",
      "type": "event"
    },
    {
      "inputs": [],
      "name": "credmark",
      "outputs": [
        {
          "internalType": "contract IERC20",
          "name": "",
          "type": "address"
        }
      ],
      "stateMutability": "view",
      "type": "function"
    },
    {
      "inputs": [],
      "name": "endTime",
      "outputs": [
        {
          "internalType": "uint256",
          "name": "",
          "type": "uint256"
        }
      ],
      "stateMutability": "view",
      "type": "function"
    },
    {
      "inputs": [],
      "name": "getLastRewardTime",
      "outputs": [
        {
          "internalType": "uint256",
          "name": "",
          "type": "uint256"
        }
      ],
      "stateMutability": "view",
      "type": "function"
    },
    {
      "inputs": [],
      "name": "issueRewards",
      "outputs": [],
      "stateMutability": "nonpayable",
      "type": "function"
    },
    {
      "inputs": [],
      "name": "lastRewardTime",
      "outputs": [
        {
          "internalType": "uint256",
          "name": "",
          "type": "uint256"
        }
      ],
      "stateMutability": "view",
      "type": "function"
    },
    {
      "inputs": [],
      "name": "owner",
      "outputs": [
        {
          "internalType": "address",
          "name": "",
          "type": "address"
        }
      ],
      "stateMutability": "view",
      "type": "function"
    },
    {
      "inputs": [],
      "name": "renounceOwnership",
      "outputs": [],
      "stateMutability": "nonpayable",
      "type": "function"
    },
    {
      "inputs": [
        {
          "internalType": "uint256",
          "name": "_endTime",
          "type": "uint256"
        }
      ],
      "name": "setEndTime",
      "outputs": [],
      "stateMutability": "nonpayable",
      "type": "function"
    },
    {
      "inputs": [],
      "name": "stakedCredmark",
      "outputs": [
        {
          "internalType": "contract IERC20",
          "name": "",
          "type": "address"
        }
      ],
      "stateMutability": "view",
      "type": "function"
    },
    {
      "inputs": [
        {
          "internalType": "uint256",
          "name": "_endTime",
          "type": "uint256"
        }
      ],
      "name": "start",
      "outputs": [],
      "stateMutability": "nonpayable",
      "type": "function"
    },
    {
      "inputs": [],
      "name": "started",
      "outputs": [
        {
          "internalType": "bool",
          "name": "",
          "type": "bool"
        }
      ],
      "stateMutability": "view",
      "type": "function"
    },
    {
      "inputs": [
        {
          "internalType": "address",
          "name": "newOwner",
          "type": "address"
        }
      ],
      "name": "transferOwnership",
      "outputs": [],
      "stateMutability": "nonpayable",
      "type": "function"
    },
    {
      "inputs": [],
      "name": "unissuedRewards",
      "outputs": [
        {
          "internalType": "uint256",
          "name": "",
          "type": "uint256"
        }
      ],
      "stateMutability": "view",
      "type": "function"
    }
  ],
  "bytecode": "0x608060405234801561001057600080fd5b506040516109c73803806109c783398101604081905261002f916100d8565b6100383361006c565b600180546001600160a01b039283166001600160a01b0319918216179091556002805493909216921691909117905561010b565b600080546001600160a01b038381166001600160a01b0319831681178455604051919092169283917f8be0079c531659141344cd1fd0a4f28419497f9722a3daafe3b4186f6b6457e09190a35050565b80516001600160a01b03811681146100d357600080fd5b919050565b600080604083850312156100eb57600080fd5b6100f4836100bc565b9150610102602084016100bc565b90509250929050565b6108ad8061011a6000396000f3fe608060405234801561001057600080fd5b50600436106100df5760003560e01c80638da5cb5b1161008c578063b0370e0c11610066578063b0370e0c1461018f578063b848125b14610197578063ccb98ffc146101aa578063f2fde38b146101bd57600080fd5b80638da5cb5b146101625780639231cf741461017357806395805dad1461017c57600080fd5b80633e340dae116100bd5780633e340dae14610125578063526f7aa81461012d578063715018a61461015857600080fd5b80631f2698ab146100e45780633197cbb614610106578063348bc4621461011d575b600080fd5b6005546100f19060ff1681565b60405190151581526020015b60405180910390f35b61010f60045481565b6040519081526020016100fd565b61010f6101d0565b60035461010f565b600254610140906001600160a01b031681565b6040516001600160a01b0390911681526020016100fd565b610160610305565b005b6000546001600160a01b0316610140565b61010f60035481565b61016061018a366004610800565b61036b565b61016061047d565b600154610140906001600160a01b031681565b6101606101b8366004610800565b6105a6565b6101606101cb3660046107ae565b610664565b60055460009060ff1661022a5760405162461bcd60e51b815260206004820152601460248201527f506f6f6c20686173206e6f74207374617274656400000000000000000000000060448201526064015b60405180910390fd5b6003546004541161023b5750600090565b600454429081111561024c57506004545b6002546040516370a0823160e01b81523060048201526000916001600160a01b0316906370a082319060240160206040518083038186803b15801561029057600080fd5b505afa1580156102a4573d6000803e3d6000fd5b505050506040513d601f19601f820116820180604052508101906102c89190610819565b905060006003546004546102dc9190610873565b6003546102e99085610873565b6102f39084610854565b6102fd9190610832565b935050505090565b6000546001600160a01b0316331461035f5760405162461bcd60e51b815260206004820181905260248201527f4f776e61626c653a2063616c6c6572206973206e6f7420746865206f776e65726044820152606401610221565b6103696000610746565b565b6000546001600160a01b031633146103c55760405162461bcd60e51b815260206004820181905260248201527f4f776e61626c653a2063616c6c6572206973206e6f7420746865206f776e65726044820152606401610221565b60055460ff16156104185760405162461bcd60e51b815260206004820152601860248201527f436f6e747261637420416c7265616479205374617274656400000000000000006044820152606401610221565b4281116104675760405162461bcd60e51b815260206004820152601960248201527f456e642074696d65206973206e6f7420696e20667574757265000000000000006044820152606401610221565b426003556004556005805460ff19166001179055565b60055460ff166104cf5760405162461bcd60e51b815260206004820152601460248201527f506f6f6c20686173206e6f7420737461727465640000000000000000000000006044820152606401610221565b60006104d96101d0565b426003559050806104e75750565b60025460015460405163a9059cbb60e01b81526001600160a01b0391821660048201526024810184905291169063a9059cbb90604401602060405180830381600087803b15801561053757600080fd5b505af115801561054b573d6000803e3d6000fd5b505050506040513d601f19601f8201168201806040525081019061056f91906107de565b506040518181527fb5c36a67db408b3b96faf7f2b263e25efb02e2aa826038868a38ee2b1b5209789060200160405180910390a150565b6000546001600160a01b031633146106005760405162461bcd60e51b815260206004820181905260248201527f4f776e61626c653a2063616c6c6572206973206e6f7420746865206f776e65726044820152606401610221565b42811161064f5760405162461bcd60e51b815260206004820152601960248201527f456e642074696d65206973206e6f7420696e20667574757265000000000000006044820152606401610221565b6004541561065f5761065f61047d565b600455565b6000546001600160a01b031633146106be5760405162461bcd60e51b815260206004820181905260248201527f4f776e61626c653a2063616c6c6572206973206e6f7420746865206f776e65726044820152606401610221565b6001600160a01b03811661073a5760405162461bcd60e51b815260206004820152602660248201527f4f776e61626c653a206e6577206f776e657220697320746865207a65726f206160448201527f64647265737300000000000000000000000000000000000000000000000000006064820152608401610221565b61074381610746565b50565b600080546001600160a01b038381167fffffffffffffffffffffffff0000000000000000000000000000000000000000831681178455604051919092169283917f8be0079c531659141344cd1fd0a4f28419497f9722a3daafe3b4186f6b6457e09190a35050565b6000602082840312156107c057600080fd5b81356001600160a01b03811681146107d757600080fd5b9392505050565b6000602082840312156107f057600080fd5b815180151581146107d757600080fd5b60006020828403121561081257600080fd5b5035919050565b60006020828403121561082b57600080fd5b5051919050565b60008261084f57634e487b7160e01b600052601260045260246000fd5b500490565b600081600019048311821515161561086e5761086e61088a565b500290565b6000828210156108855761088561088a565b500390565b634e487b7160e01b600052601160045260246000fdfea164736f6c6343000807000a",
  "linkReferences": {},
  "deployedLinkReferences": {}
}