{
  "_format": "hh-sol-artifact-1",
  "contractName": "StakedCredmark",
  "sourceName": "contracts/base/StakedCredmark.sol",
  "abi": [
    {
      "inputs": [
        {
          "internalType": "contract IERC20",
          "name": "_credmark",
          "type": "address"
        }
      ],
      "stateMutability": "nonpayable",
      "type": "constructor"
    },
    {
      "anonymous": false,
      "inputs": [
        {
          "indexed": true,
          "internalType": "address",
          "name": "owner",
          "type": "address"
        },
        {
          "indexed": true,
          "internalType": "address",
          "name": "spender",
          "type": "address"
        },
        {
          "indexed": false,
          "internalType": "uint256",
          "name": "value",
          "type": "uint256"
        }
      ],
      "name": "Approval",
      "type": "event"
    },
    {
      "anonymous": false,
      "inputs": [
        {
          "indexed": true,
          "internalType": "address",
          "name": "previousOwner",
          "type": "address"
        },
        {
          "indexed": true,
          "internalType": "address",
          "name": "newOwner",
          "type": "address"
        }
      ],
      "name": "OwnershipTransferred",
      "type": "event"
    },
    {
      "anonymous": false,
      "inputs": [
        {
          "indexed": true,
          "internalType": "address",
          "name": "from",
          "type": "address"
        },
        {
          "indexed": true,
          "internalType": "address",
          "name": "to",
          "type": "address"
        },
        {
          "indexed": false,
          "internalType": "uint256",
          "name": "value",
          "type": "uint256"
        }
      ],
      "name": "Transfer",
      "type": "event"
    },
    {
      "inputs": [
        {
          "internalType": "address",
          "name": "owner",
          "type": "address"
        },
        {
          "internalType": "address",
          "name": "spender",
          "type": "address"
        }
      ],
      "name": "allowance",
      "outputs": [
        {
          "internalType": "uint256",
          "name": "",
          "type": "uint256"
        }
      ],
      "stateMutability": "view",
      "type": "function"
    },
    {
      "inputs": [
        {
          "internalType": "address",
          "name": "spender",
          "type": "address"
        },
        {
          "internalType": "uint256",
          "name": "amount",
          "type": "uint256"
        }
      ],
      "name": "approve",
      "outputs": [
        {
          "internalType": "bool",
          "name": "",
          "type": "bool"
        }
      ],
      "stateMutability": "nonpayable",
      "type": "function"
    },
    {
      "inputs": [
        {
          "internalType": "address",
          "name": "account",
          "type": "address"
        }
      ],
      "name": "balanceOf",
      "outputs": [
        {
          "internalType": "uint256",
          "name": "",
          "type": "uint256"
        }
      ],
      "stateMutability": "view",
      "type": "function"
    },
    {
      "inputs": [
        {
          "internalType": "address",
          "name": "account",
          "type": "address"
        }
      ],
      "name": "cmkBalanceOf",
      "outputs": [
        {
          "internalType": "uint256",
          "name": "",
          "type": "uint256"
        }
      ],
      "stateMutability": "view",
      "type": "function"
    },
    {
      "inputs": [
        {
          "internalType": "uint256",
          "name": "amount",
          "type": "uint256"
        }
      ],
      "name": "cmkToShares",
      "outputs": [
        {
          "internalType": "uint256",
          "name": "sharesAmount",
          "type": "uint256"
        }
      ],
      "stateMutability": "view",
      "type": "function"
    },
    {
      "inputs": [],
      "name": "cmkTotalSupply",
      "outputs": [
        {
          "internalType": "uint256",
          "name": "",
          "type": "uint256"
        }
      ],
      "stateMutability": "view",
      "type": "function"
    },
    {
      "inputs": [
        {
          "internalType": "uint256",
          "name": "_amount",
          "type": "uint256"
        }
      ],
      "name": "createShare",
      "outputs": [
        {
          "internalType": "uint256",
          "name": "sCmk",
          "type": "uint256"
        }
      ],
      "stateMutability": "nonpayable",
      "type": "function"
    },
    {
      "inputs": [],
      "name": "credmark",
      "outputs": [
        {
          "internalType": "contract IERC20",
          "name": "",
          "type": "address"
        }
      ],
      "stateMutability": "view",
      "type": "function"
    },
    {
      "inputs": [],
      "name": "decimals",
      "outputs": [
        {
          "internalType": "uint8",
          "name": "",
          "type": "uint8"
        }
      ],
      "stateMutability": "view",
      "type": "function"
    },
    {
      "inputs": [
        {
          "internalType": "address",
          "name": "spender",
          "type": "address"
        },
        {
          "internalType": "uint256",
          "name": "subtractedValue",
          "type": "uint256"
        }
      ],
      "name": "decreaseAllowance",
      "outputs": [
        {
          "internalType": "bool",
          "name": "",
          "type": "bool"
        }
      ],
      "stateMutability": "nonpayable",
      "type": "function"
    },
    {
      "inputs": [
        {
          "internalType": "address",
          "name": "spender",
          "type": "address"
        },
        {
          "internalType": "uint256",
          "name": "addedValue",
          "type": "uint256"
        }
      ],
      "name": "increaseAllowance",
      "outputs": [
        {
          "internalType": "bool",
          "name": "",
          "type": "bool"
        }
      ],
      "stateMutability": "nonpayable",
      "type": "function"
    },
    {
      "inputs": [],
      "name": "name",
      "outputs": [
        {
          "internalType": "string",
          "name": "",
          "type": "string"
        }
      ],
      "stateMutability": "view",
      "type": "function"
    },
    {
      "inputs": [],
      "name": "owner",
      "outputs": [
        {
          "internalType": "address",
          "name": "",
          "type": "address"
        }
      ],
      "stateMutability": "view",
      "type": "function"
    },
    {
      "inputs": [
        {
          "internalType": "uint256",
          "name": "_share",
          "type": "uint256"
        }
      ],
      "name": "removeShare",
      "outputs": [],
      "stateMutability": "nonpayable",
      "type": "function"
    },
    {
      "inputs": [],
      "name": "renounceOwnership",
      "outputs": [],
      "stateMutability": "nonpayable",
      "type": "function"
    },
    {
      "inputs": [
        {
          "internalType": "address",
          "name": "rewardsPool",
          "type": "address"
        }
      ],
      "name": "setRewardsPool",
      "outputs": [],
      "stateMutability": "nonpayable",
      "type": "function"
    },
    {
      "inputs": [
        {
          "internalType": "uint256",
          "name": "amount",
          "type": "uint256"
        }
      ],
      "name": "sharesToCmk",
      "outputs": [
        {
          "internalType": "uint256",
          "name": "cmkAmount",
          "type": "uint256"
        }
      ],
      "stateMutability": "view",
      "type": "function"
    },
    {
      "inputs": [],
      "name": "symbol",
      "outputs": [
        {
          "internalType": "string",
          "name": "",
          "type": "string"
        }
      ],
      "stateMutability": "view",
      "type": "function"
    },
    {
      "inputs": [],
      "name": "totalSupply",
      "outputs": [
        {
          "internalType": "uint256",
          "name": "",
          "type": "uint256"
        }
      ],
      "stateMutability": "view",
      "type": "function"
    },
    {
      "inputs": [
        {
          "internalType": "address",
          "name": "recipient",
          "type": "address"
        },
        {
          "internalType": "uint256",
          "name": "amount",
          "type": "uint256"
        }
      ],
      "name": "transfer",
      "outputs": [
        {
          "internalType": "bool",
          "name": "",
          "type": "bool"
        }
      ],
      "stateMutability": "nonpayable",
      "type": "function"
    },
    {
      "inputs": [
        {
          "internalType": "address",
          "name": "sender",
          "type": "address"
        },
        {
          "internalType": "address",
          "name": "recipient",
          "type": "address"
        },
        {
          "internalType": "uint256",
          "name": "amount",
          "type": "uint256"
        }
      ],
      "name": "transferFrom",
      "outputs": [
        {
          "internalType": "bool",
          "name": "",
          "type": "bool"
        }
      ],
      "stateMutability": "nonpayable",
      "type": "function"
    },
    {
      "inputs": [
        {
          "internalType": "address",
          "name": "newOwner",
          "type": "address"
        }
      ],
      "name": "transferOwnership",
      "outputs": [],
      "stateMutability": "nonpayable",
      "type": "function"
    }
  ],
  "bytecode": "0x60806040523480156200001157600080fd5b506040516200158c3803806200158c8339810160408190526200003491620001e1565b6040518060400160405280600e81526020016d5374616b6564437265646d61726b60901b8152506040518060400160405280600481526020016373434d4b60e01b815250620000926200008c620000e760201b60201c565b620000eb565b8151620000a79060049060208501906200013b565b508051620000bd9060059060208401906200013b565b5050600680546001600160a01b0319166001600160a01b0393909316929092179091555062000250565b3390565b600080546001600160a01b038381166001600160a01b0319831681178455604051919092169283917f8be0079c531659141344cd1fd0a4f28419497f9722a3daafe3b4186f6b6457e09190a35050565b828054620001499062000213565b90600052602060002090601f0160209004810192826200016d5760008555620001b8565b82601f106200018857805160ff1916838001178555620001b8565b82800160010185558215620001b8579182015b82811115620001b85782518255916020019190600101906200019b565b50620001c6929150620001ca565b5090565b5b80821115620001c65760008155600101620001cb565b600060208284031215620001f457600080fd5b81516001600160a01b03811681146200020c57600080fd5b9392505050565b600181811c908216806200022857607f821691505b602082108114156200024a57634e487b7160e01b600052602260045260246000fd5b50919050565b61132c80620002606000396000f3fe608060405234801561001057600080fd5b50600436106101825760003560e01c80637c000293116100d8578063a9059cbb1161008c578063dd62ed3e11610066578063dd62ed3e1461031e578063f2fde38b14610357578063fdb4a0f81461036a57600080fd5b8063a9059cbb146102e5578063b00b3637146102f8578063dd22d4451461030b57600080fd5b806395d89b41116100bd57806395d89b41146102b7578063a404792c146102bf578063a457c2d7146102d257600080fd5b80637c000293146102935780638da5cb5b146102a657600080fd5b80633332abbf1161013a578063526f7aa811610114578063526f7aa81461023757806370a0823114610262578063715018a61461028b57600080fd5b80633332abbf146101fc578063395093511461020f5780633edac5a71461022257600080fd5b806318160ddd1161016b57806318160ddd146101c857806323b872dd146101da578063313ce567146101ed57600080fd5b806306fdde0314610187578063095ea7b3146101a5575b600080fd5b61018f610372565b60405161019c919061120f565b60405180910390f35b6101b86101b3366004611191565b610404565b604051901515815260200161019c565b6003545b60405190815260200161019c565b6101b86101e8366004611155565b61041a565b6040516012815260200161019c565b6101cc61020a3660046111dd565b6104de565b6101b861021d366004611191565b61052a565b6102356102303660046111dd565b610566565b005b60065461024a906001600160a01b031681565b6040516001600160a01b03909116815260200161019c565b6101cc610270366004611100565b6001600160a01b031660009081526001602052604090205490565b61023561060e565b6102356102a1366004611100565b610674565b6000546001600160a01b031661024a565b61018f6106fd565b6101cc6102cd3660046111dd565b61070c565b6101b86102e0366004611191565b6107bb565b6101b86102f3366004611191565b61086c565b6101cc610306366004611100565b610879565b6101cc6103193660046111dd565b61089b565b6101cc61032c366004611122565b6001600160a01b03918216600090815260026020908152604080832093909416825291909152205490565b610235610365366004611100565b6108d0565b6101cc6109b2565b606060048054610381906112d4565b80601f01602080910402602001604051908101604052809291908181526020018280546103ad906112d4565b80156103fa5780601f106103cf576101008083540402835291602001916103fa565b820191906000526020600020905b8154815290600101906020018083116103dd57829003601f168201915b5050505050905090565b6000610411338484610a33565b50600192915050565b6000610427848484610b57565b6001600160a01b0384166000908152600260209081526040808320338452909152902054828110156104c65760405162461bcd60e51b815260206004820152602860248201527f45524332303a207472616e7366657220616d6f756e742065786365656473206160448201527f6c6c6f77616e636500000000000000000000000000000000000000000000000060648201526084015b60405180910390fd5b6104d38533858403610a33565b506001949350505050565b60006104e960035490565b15806104fa57506104f86109b2565b155b15610503575090565b60035461050e6109b2565b610518908461129e565b610522919061127c565b90505b919050565b3360008181526002602090815260408083206001600160a01b03871684529091528120549091610411918590610561908690611264565b610a33565b61056e610d56565b6000610579826104de565b90506105853383610e5f565b60065460405163a9059cbb60e01b8152336004820152602481018390526001600160a01b039091169063a9059cbb90604401602060405180830381600087803b1580156105d157600080fd5b505af11580156105e5573d6000803e3d6000fd5b505050506040513d601f19601f8201168201806040525081019061060991906111bb565b505050565b6000546001600160a01b031633146106685760405162461bcd60e51b815260206004820181905260248201527f4f776e61626c653a2063616c6c6572206973206e6f7420746865206f776e657260448201526064016104bd565b6106726000610fad565b565b6000546001600160a01b031633146106ce5760405162461bcd60e51b815260206004820181905260248201527f4f776e61626c653a2063616c6c6572206973206e6f7420746865206f776e657260448201526064016104bd565b6007805473ffffffffffffffffffffffffffffffffffffffff19166001600160a01b0392909216919091179055565b606060058054610381906112d4565b6000610716610d56565b61071f8261089b565b905061072b338261100a565b6006546040516323b872dd60e01b8152336004820152306024820152604481018490526001600160a01b03909116906323b872dd90606401602060405180830381600087803b15801561077d57600080fd5b505af1158015610791573d6000803e3d6000fd5b505050506040513d601f19601f820116820180604052508101906107b591906111bb565b50919050565b3360009081526002602090815260408083206001600160a01b0386168452909152812054828110156108555760405162461bcd60e51b815260206004820152602560248201527f45524332303a2064656372656173656420616c6c6f77616e63652062656c6f7760448201527f207a65726f00000000000000000000000000000000000000000000000000000060648201526084016104bd565b6108623385858403610a33565b5060019392505050565b6000610411338484610b57565b6001600160a01b038116600090815260016020526040812054610522906104de565b60006108a660035490565b15806108b757506108b56109b2565b155b156108c0575090565b6108c86109b2565b60035461050e565b6000546001600160a01b0316331461092a5760405162461bcd60e51b815260206004820181905260248201527f4f776e61626c653a2063616c6c6572206973206e6f7420746865206f776e657260448201526064016104bd565b6001600160a01b0381166109a65760405162461bcd60e51b815260206004820152602660248201527f4f776e61626c653a206e6577206f776e657220697320746865207a65726f206160448201527f646472657373000000000000000000000000000000000000000000000000000060648201526084016104bd565b6109af81610fad565b50565b6006546040516370a0823160e01b81523060048201526000916001600160a01b0316906370a082319060240160206040518083038186803b1580156109f657600080fd5b505afa158015610a0a573d6000803e3d6000fd5b505050506040513d601f19601f82011682018060405250810190610a2e91906111f6565b905090565b6001600160a01b038316610a955760405162461bcd60e51b8152602060048201526024808201527f45524332303a20617070726f76652066726f6d20746865207a65726f206164646044820152637265737360e01b60648201526084016104bd565b6001600160a01b038216610af65760405162461bcd60e51b815260206004820152602260248201527f45524332303a20617070726f766520746f20746865207a65726f206164647265604482015261737360f01b60648201526084016104bd565b6001600160a01b0383811660008181526002602090815260408083209487168084529482529182902085905590518481527f8c5be1e5ebec7d5bd14f71427d1e84f3dd0314c0f7b2291e5b200ac8c7c3b925910160405180910390a3505050565b6001600160a01b038316610bd35760405162461bcd60e51b815260206004820152602560248201527f45524332303a207472616e736665722066726f6d20746865207a65726f20616460448201527f647265737300000000000000000000000000000000000000000000000000000060648201526084016104bd565b6001600160a01b038216610c355760405162461bcd60e51b815260206004820152602360248201527f45524332303a207472616e7366657220746f20746865207a65726f206164647260448201526265737360e81b60648201526084016104bd565b6001600160a01b03831660009081526001602052604090205481811015610cc45760405162461bcd60e51b815260206004820152602660248201527f45524332303a207472616e7366657220616d6f756e742065786365656473206260448201527f616c616e6365000000000000000000000000000000000000000000000000000060648201526084016104bd565b6001600160a01b03808516600090815260016020526040808220858503905591851681529081208054849290610cfb908490611264565b92505081905550826001600160a01b0316846001600160a01b03167fddf252ad1be2c89b69c2b068fc378daa952ba7f163c4a11628f55a4df523b3ef84604051610d4791815260200190565b60405180910390a35b50505050565b6007546001600160a01b031615801590610df657506007546040805163056b7ba560e21b8152905162015180926001600160a01b0316916315adee94916004808301926020929190829003018186803b158015610db257600080fd5b505afa158015610dc6573d6000803e3d6000fd5b505050506040513d601f19601f82011682018060405250810190610dea91906111f6565b610df490426112bd565b115b1561067257600760009054906101000a90046001600160a01b03166001600160a01b031663b0370e0c6040518163ffffffff1660e01b8152600401600060405180830381600087803b158015610e4b57600080fd5b505af1158015610d50573d6000803e3d6000fd5b6001600160a01b038216610ebf5760405162461bcd60e51b815260206004820152602160248201527f45524332303a206275726e2066726f6d20746865207a65726f206164647265736044820152607360f81b60648201526084016104bd565b6001600160a01b03821660009081526001602052604090205481811015610f335760405162461bcd60e51b815260206004820152602260248201527f45524332303a206275726e20616d6f756e7420657863656564732062616c616e604482015261636560f01b60648201526084016104bd565b6001600160a01b0383166000908152600160205260408120838303905560038054849290610f629084906112bd565b90915550506040518281526000906001600160a01b038516907fddf252ad1be2c89b69c2b068fc378daa952ba7f163c4a11628f55a4df523b3ef9060200160405180910390a3505050565b600080546001600160a01b0383811673ffffffffffffffffffffffffffffffffffffffff19831681178455604051919092169283917f8be0079c531659141344cd1fd0a4f28419497f9722a3daafe3b4186f6b6457e09190a35050565b6001600160a01b0382166110605760405162461bcd60e51b815260206004820152601f60248201527f45524332303a206d696e7420746f20746865207a65726f20616464726573730060448201526064016104bd565b80600360008282546110729190611264565b90915550506001600160a01b0382166000908152600160205260408120805483929061109f908490611264565b90915550506040518181526001600160a01b038316906000907fddf252ad1be2c89b69c2b068fc378daa952ba7f163c4a11628f55a4df523b3ef9060200160405180910390a35050565b80356001600160a01b038116811461052557600080fd5b60006020828403121561111257600080fd5b61111b826110e9565b9392505050565b6000806040838503121561113557600080fd5b61113e836110e9565b915061114c602084016110e9565b90509250929050565b60008060006060848603121561116a57600080fd5b611173846110e9565b9250611181602085016110e9565b9150604084013590509250925092565b600080604083850312156111a457600080fd5b6111ad836110e9565b946020939093013593505050565b6000602082840312156111cd57600080fd5b8151801515811461111b57600080fd5b6000602082840312156111ef57600080fd5b5035919050565b60006020828403121561120857600080fd5b5051919050565b600060208083528351808285015260005b8181101561123c57858101830151858201604001528201611220565b8181111561124e576000604083870101525b50601f01601f1916929092016040019392505050565b6000821982111561127757611277611309565b500190565b60008261129957634e487b7160e01b600052601260045260246000fd5b500490565b60008160001904831182151516156112b8576112b8611309565b500290565b6000828210156112cf576112cf611309565b500390565b600181811c908216806112e857607f821691505b602082108114156107b557634e487b7160e01b600052602260045260246000fd5b634e487b7160e01b600052601160045260246000fdfea164736f6c6343000807000a",
  "linkReferences": {},
  "deployedLinkReferences": {}
}